{
	"Diary/Diary.sol": {
		"Diary": {
			"abi": [
				{
					"inputs": [
						{
							"internalType": "string",
							"name": "_title",
							"type": "string"
						},
						{
							"internalType": "string",
							"name": "_content",
							"type": "string"
						},
						{
							"internalType": "enum Diary.Status",
							"name": "_status",
							"type": "uint8"
						}
					],
					"name": "addDiary",
					"outputs": [],
					"stateMutability": "nonpayable",
					"type": "function"
				},
				{
					"inputs": [
						{
							"internalType": "enum Diary.Status",
							"name": "_status",
							"type": "uint8"
						}
					],
					"name": "getDiariesByStatus",
					"outputs": [
						{
							"components": [
								{
									"internalType": "string",
									"name": "title",
									"type": "string"
								},
								{
									"internalType": "string",
									"name": "content",
									"type": "string"
								},
								{
									"internalType": "enum Diary.Status",
									"name": "status",
									"type": "uint8"
								},
								{
									"internalType": "uint256",
									"name": "timestamp",
									"type": "uint256"
								}
							],
							"internalType": "struct Diary.DiaryInfo[]",
							"name": "",
							"type": "tuple[]"
						}
					],
					"stateMutability": "view",
					"type": "function"
				},
				{
					"inputs": [],
					"name": "getUserStatus",
					"outputs": [
						{
							"internalType": "enum Diary.Status",
							"name": "",
							"type": "uint8"
						}
					],
					"stateMutability": "view",
					"type": "function"
				},
				{
					"inputs": [
						{
							"internalType": "enum Diary.Status",
							"name": "_status",
							"type": "uint8"
						}
					],
					"name": "setUserStatus",
					"outputs": [],
					"stateMutability": "nonpayable",
					"type": "function"
				}
			],
			"devdoc": {
				"kind": "dev",
				"methods": {},
				"version": 1
			},
			"evm": {
				"assembly": "    /* \"Diary/Diary.sol\":62:1918  contract Diary{... */\n  mstore(0x40, 0x80)\n  callvalue\n  dup1\n  iszero\n  tag_1\n  jumpi\n  revert(0x00, 0x00)\ntag_1:\n  pop\n  dataSize(sub_0)\n  dup1\n  dataOffset(sub_0)\n  0x00\n  codecopy\n  0x00\n  return\nstop\n\nsub_0: assembly {\n        /* \"Diary/Diary.sol\":62:1918  contract Diary{... */\n      mstore(0x40, 0x80)\n      callvalue\n      dup1\n      iszero\n      tag_1\n      jumpi\n      revert(0x00, 0x00)\n    tag_1:\n      pop\n      jumpi(tag_2, lt(calldatasize, 0x04))\n      shr(0xe0, calldataload(0x00))\n      dup1\n      0x1e8c5887\n      eq\n      tag_3\n      jumpi\n      dup1\n      0x58575da4\n      eq\n      tag_4\n      jumpi\n      dup1\n      0x5aa3e0c3\n      eq\n      tag_5\n      jumpi\n      dup1\n      0xe650f536\n      eq\n      tag_6\n      jumpi\n    tag_2:\n      revert(0x00, 0x00)\n        /* \"Diary/Diary.sol\":428:760  function addDiary(string memory _title, string memory _content, Status _status) public {... */\n    tag_3:\n      tag_7\n      0x04\n      dup1\n      calldatasize\n      sub\n      dup2\n      add\n      swap1\n      tag_8\n      swap2\n      swap1\n      tag_9\n      jump\t// in\n    tag_8:\n      tag_10\n      jump\t// in\n    tag_7:\n      stop\n        /* \"Diary/Diary.sol\":1078:1915  function getDiariesByStatus(Status _status) public view returns (DiaryInfo[] memory) {... */\n    tag_4:\n      tag_11\n      0x04\n      dup1\n      calldatasize\n      sub\n      dup2\n      add\n      swap1\n      tag_12\n      swap2\n      swap1\n      tag_13\n      jump\t// in\n    tag_12:\n      tag_14\n      jump\t// in\n    tag_11:\n      mload(0x40)\n      tag_15\n      swap2\n      swap1\n      tag_16\n      jump\t// in\n    tag_15:\n      mload(0x40)\n      dup1\n      swap2\n      sub\n      swap1\n      return\n        /* \"Diary/Diary.sol\":796:893  function setUserStatus(Status _status) public {... */\n    tag_5:\n      tag_17\n      0x04\n      dup1\n      calldatasize\n      sub\n      dup2\n      add\n      swap1\n      tag_18\n      swap2\n      swap1\n      tag_13\n      jump\t// in\n    tag_18:\n      tag_19\n      jump\t// in\n    tag_17:\n      stop\n        /* \"Diary/Diary.sol\":923:1025  function getUserStatus() public view returns (Status) {... */\n    tag_6:\n      tag_20\n      tag_21\n      jump\t// in\n    tag_20:\n      mload(0x40)\n      tag_22\n      swap2\n      swap1\n      tag_23\n      jump\t// in\n    tag_22:\n      mload(0x40)\n      dup1\n      swap2\n      sub\n      swap1\n      return\n        /* \"Diary/Diary.sol\":428:760  function addDiary(string memory _title, string memory _content, Status _status) public {... */\n    tag_10:\n        /* \"Diary/Diary.sol\":526:536  DiaryInfos */\n      0x01\n        /* \"Diary/Diary.sol\":526:548  DiaryInfos[msg.sender] */\n      0x00\n        /* \"Diary/Diary.sol\":537:547  msg.sender */\n      caller\n        /* \"Diary/Diary.sol\":526:548  DiaryInfos[msg.sender] */\n      0xffffffffffffffffffffffffffffffffffffffff\n      and\n      0xffffffffffffffffffffffffffffffffffffffff\n      and\n      dup2\n      mstore\n      0x20\n      add\n      swap1\n      dup2\n      mstore\n      0x20\n      add\n      0x00\n      keccak256\n        /* \"Diary/Diary.sol\":568:741  DiaryInfo({... */\n      mload(0x40)\n      dup1\n      0x80\n      add\n      0x40\n      mstore\n      dup1\n        /* \"Diary/Diary.sol\":604:610  _title */\n      dup6\n        /* \"Diary/Diary.sol\":568:741  DiaryInfo({... */\n      dup2\n      mstore\n      0x20\n      add\n        /* \"Diary/Diary.sol\":638:646  _content */\n      dup5\n        /* \"Diary/Diary.sol\":568:741  DiaryInfo({... */\n      dup2\n      mstore\n      0x20\n      add\n        /* \"Diary/Diary.sol\":673:680  _status */\n      dup4\n        /* \"Diary/Diary.sol\":568:741  DiaryInfo({... */\n      0x02\n      dup2\n      gt\n      iszero\n      tag_25\n      jumpi\n      tag_26\n      tag_27\n      jump\t// in\n    tag_26:\n    tag_25:\n      dup2\n      mstore\n      0x20\n      add\n        /* \"Diary/Diary.sol\":710:725  block.timestamp */\n      timestamp\n        /* \"Diary/Diary.sol\":568:741  DiaryInfo({... */\n      dup2\n      mstore\n      pop\n        /* \"Diary/Diary.sol\":526:752  DiaryInfos[msg.sender].push(... */\n      swap1\n      dup1\n      0x01\n      dup2\n      sload\n      add\n      dup1\n      dup3\n      sstore\n      dup1\n      swap2\n      pop\n      pop\n      0x01\n      swap1\n      sub\n      swap1\n      0x00\n      mstore\n      keccak256(0x00, 0x20)\n      swap1\n      0x04\n      mul\n      add\n      0x00\n      swap1\n      swap2\n      swap1\n      swap2\n      swap1\n      swap2\n      pop\n      0x00\n      dup3\n      add\n      mload\n      dup2\n      0x00\n      add\n      swap1\n      dup2\n      tag_29\n      swap2\n      swap1\n      tag_30\n      jump\t// in\n    tag_29:\n      pop\n      0x20\n      dup3\n      add\n      mload\n      dup2\n      0x01\n      add\n      swap1\n      dup2\n      tag_31\n      swap2\n      swap1\n      tag_30\n      jump\t// in\n    tag_31:\n      pop\n      0x40\n      dup3\n      add\n      mload\n      dup2\n      0x02\n      add\n      exp(0x0100, 0x00)\n      dup2\n      sload\n      dup2\n      0xff\n      mul\n      not\n      and\n      swap1\n      dup4\n      0x02\n      dup2\n      gt\n      iszero\n      tag_32\n      jumpi\n      tag_33\n      tag_27\n      jump\t// in\n    tag_33:\n    tag_32:\n      mul\n      or\n      swap1\n      sstore\n      pop\n      0x60\n      dup3\n      add\n      mload\n      dup2\n      0x03\n      add\n      sstore\n      pop\n      pop\n        /* \"Diary/Diary.sol\":428:760  function addDiary(string memory _title, string memory _content, Status _status) public {... */\n      pop\n      pop\n      pop\n      jump\t// out\n        /* \"Diary/Diary.sol\":1078:1915  function getDiariesByStatus(Status _status) public view returns (DiaryInfo[] memory) {... */\n    tag_14:\n        /* \"Diary/Diary.sol\":1143:1161  DiaryInfo[] memory */\n      0x60\n        /* \"Diary/Diary.sol\":1174:1204  DiaryInfo[] storage allDiaries */\n      0x00\n        /* \"Diary/Diary.sol\":1207:1217  DiaryInfos */\n      0x01\n        /* \"Diary/Diary.sol\":1207:1229  DiaryInfos[msg.sender] */\n      0x00\n        /* \"Diary/Diary.sol\":1218:1228  msg.sender */\n      caller\n        /* \"Diary/Diary.sol\":1207:1229  DiaryInfos[msg.sender] */\n      0xffffffffffffffffffffffffffffffffffffffff\n      and\n      0xffffffffffffffffffffffffffffffffffffffff\n      and\n      dup2\n      mstore\n      0x20\n      add\n      swap1\n      dup2\n      mstore\n      0x20\n      add\n      0x00\n      keccak256\n        /* \"Diary/Diary.sol\":1174:1229  DiaryInfo[] storage allDiaries = DiaryInfos[msg.sender] */\n      swap1\n      pop\n        /* \"Diary/Diary.sol\":1240:1250  uint count */\n      0x00\n        /* \"Diary/Diary.sol\":1253:1254  0 */\n      0x00\n        /* \"Diary/Diary.sol\":1240:1254  uint count = 0 */\n      swap1\n      pop\n        /* \"Diary/Diary.sol\":1311:1317  uint i */\n      0x00\n        /* \"Diary/Diary.sol\":1320:1321  0 */\n      0x00\n        /* \"Diary/Diary.sol\":1311:1321  uint i = 0 */\n      swap1\n      pop\n        /* \"Diary/Diary.sol\":1306:1456  for (uint i = 0; i < allDiaries.length; i++) {... */\n    tag_35:\n        /* \"Diary/Diary.sol\":1327:1337  allDiaries */\n      dup3\n        /* \"Diary/Diary.sol\":1327:1344  allDiaries.length */\n      dup1\n      sload\n      swap1\n      pop\n        /* \"Diary/Diary.sol\":1323:1324  i */\n      dup2\n        /* \"Diary/Diary.sol\":1323:1344  i < allDiaries.length */\n      lt\n        /* \"Diary/Diary.sol\":1306:1456  for (uint i = 0; i < allDiaries.length; i++) {... */\n      iszero\n      tag_36\n      jumpi\n        /* \"Diary/Diary.sol\":1394:1401  _status */\n      dup5\n        /* \"Diary/Diary.sol\":1370:1401  allDiaries[i].status == _status */\n      0x02\n      dup2\n      gt\n      iszero\n      tag_38\n      jumpi\n      tag_39\n      tag_27\n      jump\t// in\n    tag_39:\n    tag_38:\n        /* \"Diary/Diary.sol\":1370:1380  allDiaries */\n      dup4\n        /* \"Diary/Diary.sol\":1381:1382  i */\n      dup3\n        /* \"Diary/Diary.sol\":1370:1383  allDiaries[i] */\n      dup2\n      sload\n      dup2\n      lt\n      tag_40\n      jumpi\n      tag_41\n      tag_42\n      jump\t// in\n    tag_41:\n    tag_40:\n      swap1\n      0x00\n      mstore\n      keccak256(0x00, 0x20)\n      swap1\n      0x04\n      mul\n      add\n        /* \"Diary/Diary.sol\":1370:1390  allDiaries[i].status */\n      0x02\n      add\n      0x00\n      swap1\n      sload\n      swap1\n      0x0100\n      exp\n      swap1\n      div\n      0xff\n      and\n        /* \"Diary/Diary.sol\":1370:1401  allDiaries[i].status == _status */\n      0x02\n      dup2\n      gt\n      iszero\n      tag_44\n      jumpi\n      tag_45\n      tag_27\n      jump\t// in\n    tag_45:\n    tag_44:\n      sub\n        /* \"Diary/Diary.sol\":1366:1445  if (allDiaries[i].status == _status) {... */\n      tag_46\n      jumpi\n        /* \"Diary/Diary.sol\":1422:1429  count++ */\n      dup2\n      dup1\n      tag_47\n      swap1\n      tag_48\n      jump\t// in\n    tag_47:\n      swap3\n      pop\n      pop\n        /* \"Diary/Diary.sol\":1366:1445  if (allDiaries[i].status == _status) {... */\n    tag_46:\n        /* \"Diary/Diary.sol\":1346:1349  i++ */\n      dup1\n      dup1\n      0x01\n      add\n      swap2\n      pop\n      pop\n        /* \"Diary/Diary.sol\":1306:1456  for (uint i = 0; i < allDiaries.length; i++) {... */\n      jump(tag_35)\n    tag_36:\n      pop\n        /* \"Diary/Diary.sol\":1527:1561  DiaryInfo[] memory filteredDiaries */\n      0x00\n        /* \"Diary/Diary.sol\":1580:1585  count */\n      dup2\n        /* \"Diary/Diary.sol\":1564:1586  new DiaryInfo[](count) */\n      0xffffffffffffffff\n      dup2\n      gt\n      iszero\n      tag_49\n      jumpi\n      tag_50\n      tag_51\n      jump\t// in\n    tag_50:\n    tag_49:\n      mload(0x40)\n      swap1\n      dup1\n      dup3\n      mstore\n      dup1\n      0x20\n      mul\n      0x20\n      add\n      dup3\n      add\n      0x40\n      mstore\n      dup1\n      iszero\n      tag_52\n      jumpi\n      dup2\n      0x20\n      add\n    tag_53:\n      tag_54\n      tag_55\n      jump\t// in\n    tag_54:\n      dup2\n      mstore\n      0x20\n      add\n      swap1\n      0x01\n      swap1\n      sub\n      swap1\n      dup2\n      tag_53\n      jumpi\n      swap1\n      pop\n    tag_52:\n      pop\n        /* \"Diary/Diary.sol\":1527:1586  DiaryInfo[] memory filteredDiaries = new DiaryInfo[](count) */\n      swap1\n      pop\n        /* \"Diary/Diary.sol\":1597:1607  uint index */\n      0x00\n        /* \"Diary/Diary.sol\":1610:1611  0 */\n      0x00\n        /* \"Diary/Diary.sol\":1597:1611  uint index = 0 */\n      swap1\n      pop\n        /* \"Diary/Diary.sol\":1671:1677  uint i */\n      0x00\n        /* \"Diary/Diary.sol\":1680:1681  0 */\n      0x00\n        /* \"Diary/Diary.sol\":1671:1681  uint i = 0 */\n      swap1\n      pop\n        /* \"Diary/Diary.sol\":1666:1873  for (uint i = 0; i < allDiaries.length; i++) {... */\n    tag_56:\n        /* \"Diary/Diary.sol\":1687:1697  allDiaries */\n      dup5\n        /* \"Diary/Diary.sol\":1687:1704  allDiaries.length */\n      dup1\n      sload\n      swap1\n      pop\n        /* \"Diary/Diary.sol\":1683:1684  i */\n      dup2\n        /* \"Diary/Diary.sol\":1683:1704  i < allDiaries.length */\n      lt\n        /* \"Diary/Diary.sol\":1666:1873  for (uint i = 0; i < allDiaries.length; i++) {... */\n      iszero\n      tag_57\n      jumpi\n        /* \"Diary/Diary.sol\":1754:1761  _status */\n      dup7\n        /* \"Diary/Diary.sol\":1730:1761  allDiaries[i].status == _status */\n      0x02\n      dup2\n      gt\n      iszero\n      tag_59\n      jumpi\n      tag_60\n      tag_27\n      jump\t// in\n    tag_60:\n    tag_59:\n        /* \"Diary/Diary.sol\":1730:1740  allDiaries */\n      dup6\n        /* \"Diary/Diary.sol\":1741:1742  i */\n      dup3\n        /* \"Diary/Diary.sol\":1730:1743  allDiaries[i] */\n      dup2\n      sload\n      dup2\n      lt\n      tag_61\n      jumpi\n      tag_62\n      tag_42\n      jump\t// in\n    tag_62:\n    tag_61:\n      swap1\n      0x00\n      mstore\n      keccak256(0x00, 0x20)\n      swap1\n      0x04\n      mul\n      add\n        /* \"Diary/Diary.sol\":1730:1750  allDiaries[i].status */\n      0x02\n      add\n      0x00\n      swap1\n      sload\n      swap1\n      0x0100\n      exp\n      swap1\n      div\n      0xff\n      and\n        /* \"Diary/Diary.sol\":1730:1761  allDiaries[i].status == _status */\n      0x02\n      dup2\n      gt\n      iszero\n      tag_64\n      jumpi\n      tag_65\n      tag_27\n      jump\t// in\n    tag_65:\n    tag_64:\n      sub\n        /* \"Diary/Diary.sol\":1726:1862  if (allDiaries[i].status == _status) {... */\n      tag_66\n      jumpi\n        /* \"Diary/Diary.sol\":1807:1817  allDiaries */\n      dup5\n        /* \"Diary/Diary.sol\":1818:1819  i */\n      dup2\n        /* \"Diary/Diary.sol\":1807:1820  allDiaries[i] */\n      dup2\n      sload\n      dup2\n      lt\n      tag_67\n      jumpi\n      tag_68\n      tag_42\n      jump\t// in\n    tag_68:\n    tag_67:\n      swap1\n      0x00\n      mstore\n      keccak256(0x00, 0x20)\n      swap1\n      0x04\n      mul\n      add\n        /* \"Diary/Diary.sol\":1782:1820  filteredDiaries[index] = allDiaries[i] */\n      mload(0x40)\n      dup1\n      0x80\n      add\n      0x40\n      mstore\n      swap1\n      dup2\n      0x00\n      dup3\n      add\n      dup1\n      sload\n      tag_70\n      swap1\n      tag_71\n      jump\t// in\n    tag_70:\n      dup1\n      0x1f\n      add\n      0x20\n      dup1\n      swap2\n      div\n      mul\n      0x20\n      add\n      mload(0x40)\n      swap1\n      dup2\n      add\n      0x40\n      mstore\n      dup1\n      swap3\n      swap2\n      swap1\n      dup2\n      dup2\n      mstore\n      0x20\n      add\n      dup3\n      dup1\n      sload\n      tag_72\n      swap1\n      tag_71\n      jump\t// in\n    tag_72:\n      dup1\n      iszero\n      tag_73\n      jumpi\n      dup1\n      0x1f\n      lt\n      tag_74\n      jumpi\n      0x0100\n      dup1\n      dup4\n      sload\n      div\n      mul\n      dup4\n      mstore\n      swap2\n      0x20\n      add\n      swap2\n      jump(tag_73)\n    tag_74:\n      dup3\n      add\n      swap2\n      swap1\n      0x00\n      mstore\n      keccak256(0x00, 0x20)\n      swap1\n    tag_75:\n      dup2\n      sload\n      dup2\n      mstore\n      swap1\n      0x01\n      add\n      swap1\n      0x20\n      add\n      dup1\n      dup4\n      gt\n      tag_75\n      jumpi\n      dup3\n      swap1\n      sub\n      0x1f\n      and\n      dup3\n      add\n      swap2\n    tag_73:\n      pop\n      pop\n      pop\n      pop\n      pop\n      dup2\n      mstore\n      0x20\n      add\n      0x01\n      dup3\n      add\n      dup1\n      sload\n      tag_76\n      swap1\n      tag_71\n      jump\t// in\n    tag_76:\n      dup1\n      0x1f\n      add\n      0x20\n      dup1\n      swap2\n      div\n      mul\n      0x20\n      add\n      mload(0x40)\n      swap1\n      dup2\n      add\n      0x40\n      mstore\n      dup1\n      swap3\n      swap2\n      swap1\n      dup2\n      dup2\n      mstore\n      0x20\n      add\n      dup3\n      dup1\n      sload\n      tag_77\n      swap1\n      tag_71\n      jump\t// in\n    tag_77:\n      dup1\n      iszero\n      tag_78\n      jumpi\n      dup1\n      0x1f\n      lt\n      tag_79\n      jumpi\n      0x0100\n      dup1\n      dup4\n      sload\n      div\n      mul\n      dup4\n      mstore\n      swap2\n      0x20\n      add\n      swap2\n      jump(tag_78)\n    tag_79:\n      dup3\n      add\n      swap2\n      swap1\n      0x00\n      mstore\n      keccak256(0x00, 0x20)\n      swap1\n    tag_80:\n      dup2\n      sload\n      dup2\n      mstore\n      swap1\n      0x01\n      add\n      swap1\n      0x20\n      add\n      dup1\n      dup4\n      gt\n      tag_80\n      jumpi\n      dup3\n      swap1\n      sub\n      0x1f\n      and\n      dup3\n      add\n      swap2\n    tag_78:\n      pop\n      pop\n      pop\n      pop\n      pop\n      dup2\n      mstore\n      0x20\n      add\n      0x02\n      dup3\n      add\n      0x00\n      swap1\n      sload\n      swap1\n      0x0100\n      exp\n      swap1\n      div\n      0xff\n      and\n      0x02\n      dup2\n      gt\n      iszero\n      tag_81\n      jumpi\n      tag_82\n      tag_27\n      jump\t// in\n    tag_82:\n    tag_81:\n      0x02\n      dup2\n      gt\n      iszero\n      tag_83\n      jumpi\n      tag_84\n      tag_27\n      jump\t// in\n    tag_84:\n    tag_83:\n      dup2\n      mstore\n      0x20\n      add\n      0x03\n      dup3\n      add\n      sload\n      dup2\n      mstore\n      pop\n      pop\n        /* \"Diary/Diary.sol\":1782:1797  filteredDiaries */\n      dup4\n        /* \"Diary/Diary.sol\":1798:1803  index */\n      dup4\n        /* \"Diary/Diary.sol\":1782:1804  filteredDiaries[index] */\n      dup2\n      mload\n      dup2\n      lt\n      tag_85\n      jumpi\n      tag_86\n      tag_42\n      jump\t// in\n    tag_86:\n    tag_85:\n      0x20\n      mul\n      0x20\n      add\n      add\n        /* \"Diary/Diary.sol\":1782:1820  filteredDiaries[index] = allDiaries[i] */\n      dup2\n      swap1\n      mstore\n      pop\n        /* \"Diary/Diary.sol\":1839:1846  index++ */\n      dup2\n      dup1\n      tag_87\n      swap1\n      tag_48\n      jump\t// in\n    tag_87:\n      swap3\n      pop\n      pop\n        /* \"Diary/Diary.sol\":1726:1862  if (allDiaries[i].status == _status) {... */\n    tag_66:\n        /* \"Diary/Diary.sol\":1706:1709  i++ */\n      dup1\n      dup1\n      0x01\n      add\n      swap2\n      pop\n      pop\n        /* \"Diary/Diary.sol\":1666:1873  for (uint i = 0; i < allDiaries.length; i++) {... */\n      jump(tag_56)\n    tag_57:\n      pop\n        /* \"Diary/Diary.sol\":1892:1907  filteredDiaries */\n      dup2\n        /* \"Diary/Diary.sol\":1885:1907  return filteredDiaries */\n      swap5\n      pop\n      pop\n      pop\n      pop\n      pop\n        /* \"Diary/Diary.sol\":1078:1915  function getDiariesByStatus(Status _status) public view returns (DiaryInfo[] memory) {... */\n      swap2\n      swap1\n      pop\n      jump\t// out\n        /* \"Diary/Diary.sol\":796:893  function setUserStatus(Status _status) public {... */\n    tag_19:\n        /* \"Diary/Diary.sol\":878:885  _status */\n      dup1\n        /* \"Diary/Diary.sol\":853:863  userStatus */\n      0x00\n        /* \"Diary/Diary.sol\":853:875  userStatus[msg.sender] */\n      0x00\n        /* \"Diary/Diary.sol\":864:874  msg.sender */\n      caller\n        /* \"Diary/Diary.sol\":853:875  userStatus[msg.sender] */\n      0xffffffffffffffffffffffffffffffffffffffff\n      and\n      0xffffffffffffffffffffffffffffffffffffffff\n      and\n      dup2\n      mstore\n      0x20\n      add\n      swap1\n      dup2\n      mstore\n      0x20\n      add\n      0x00\n      keccak256\n      0x00\n        /* \"Diary/Diary.sol\":853:885  userStatus[msg.sender] = _status */\n      0x0100\n      exp\n      dup2\n      sload\n      dup2\n      0xff\n      mul\n      not\n      and\n      swap1\n      dup4\n      0x02\n      dup2\n      gt\n      iszero\n      tag_89\n      jumpi\n      tag_90\n      tag_27\n      jump\t// in\n    tag_90:\n    tag_89:\n      mul\n      or\n      swap1\n      sstore\n      pop\n        /* \"Diary/Diary.sol\":796:893  function setUserStatus(Status _status) public {... */\n      pop\n      jump\t// out\n        /* \"Diary/Diary.sol\":923:1025  function getUserStatus() public view returns (Status) {... */\n    tag_21:\n        /* \"Diary/Diary.sol\":969:975  Status */\n      0x00\n        /* \"Diary/Diary.sol\":995:1005  userStatus */\n      0x00\n        /* \"Diary/Diary.sol\":995:1017  userStatus[msg.sender] */\n      0x00\n        /* \"Diary/Diary.sol\":1006:1016  msg.sender */\n      caller\n        /* \"Diary/Diary.sol\":995:1017  userStatus[msg.sender] */\n      0xffffffffffffffffffffffffffffffffffffffff\n      and\n      0xffffffffffffffffffffffffffffffffffffffff\n      and\n      dup2\n      mstore\n      0x20\n      add\n      swap1\n      dup2\n      mstore\n      0x20\n      add\n      0x00\n      keccak256\n      0x00\n      swap1\n      sload\n      swap1\n      0x0100\n      exp\n      swap1\n      div\n      0xff\n      and\n        /* \"Diary/Diary.sol\":988:1017  return userStatus[msg.sender] */\n      swap1\n      pop\n        /* \"Diary/Diary.sol\":923:1025  function getUserStatus() public view returns (Status) {... */\n      swap1\n      jump\t// out\n    tag_55:\n      mload(0x40)\n      dup1\n      0x80\n      add\n      0x40\n      mstore\n      dup1\n      0x60\n      dup2\n      mstore\n      0x20\n      add\n      0x60\n      dup2\n      mstore\n      0x20\n      add\n      0x00\n      0x02\n      dup2\n      gt\n      iszero\n      tag_92\n      jumpi\n      tag_93\n      tag_27\n      jump\t// in\n    tag_93:\n    tag_92:\n      dup2\n      mstore\n      0x20\n      add\n      0x00\n      dup2\n      mstore\n      pop\n      swap1\n      jump\t// out\n        /* \"#utility.yul\":7:82   */\n    tag_94:\n        /* \"#utility.yul\":40:46   */\n      0x00\n        /* \"#utility.yul\":73:75   */\n      0x40\n        /* \"#utility.yul\":67:76   */\n      mload\n        /* \"#utility.yul\":57:76   */\n      swap1\n      pop\n        /* \"#utility.yul\":7:82   */\n      swap1\n      jump\t// out\n        /* \"#utility.yul\":88:205   */\n    tag_95:\n        /* \"#utility.yul\":197:198   */\n      0x00\n        /* \"#utility.yul\":194:195   */\n      0x00\n        /* \"#utility.yul\":187:199   */\n      revert\n        /* \"#utility.yul\":211:328   */\n    tag_96:\n        /* \"#utility.yul\":320:321   */\n      0x00\n        /* \"#utility.yul\":317:318   */\n      0x00\n        /* \"#utility.yul\":310:322   */\n      revert\n        /* \"#utility.yul\":334:451   */\n    tag_97:\n        /* \"#utility.yul\":443:444   */\n      0x00\n        /* \"#utility.yul\":440:441   */\n      0x00\n        /* \"#utility.yul\":433:445   */\n      revert\n        /* \"#utility.yul\":457:574   */\n    tag_98:\n        /* \"#utility.yul\":566:567   */\n      0x00\n        /* \"#utility.yul\":563:564   */\n      0x00\n        /* \"#utility.yul\":556:568   */\n      revert\n        /* \"#utility.yul\":580:682   */\n    tag_99:\n        /* \"#utility.yul\":621:627   */\n      0x00\n        /* \"#utility.yul\":672:674   */\n      0x1f\n        /* \"#utility.yul\":668:675   */\n      not\n        /* \"#utility.yul\":663:665   */\n      0x1f\n        /* \"#utility.yul\":656:661   */\n      dup4\n        /* \"#utility.yul\":652:666   */\n      add\n        /* \"#utility.yul\":648:676   */\n      and\n        /* \"#utility.yul\":638:676   */\n      swap1\n      pop\n        /* \"#utility.yul\":580:682   */\n      swap2\n      swap1\n      pop\n      jump\t// out\n        /* \"#utility.yul\":688:868   */\n    tag_51:\n        /* \"#utility.yul\":736:813   */\n      0x4e487b7100000000000000000000000000000000000000000000000000000000\n        /* \"#utility.yul\":733:734   */\n      0x00\n        /* \"#utility.yul\":726:814   */\n      mstore\n        /* \"#utility.yul\":833:837   */\n      0x41\n        /* \"#utility.yul\":830:831   */\n      0x04\n        /* \"#utility.yul\":823:838   */\n      mstore\n        /* \"#utility.yul\":857:861   */\n      0x24\n        /* \"#utility.yul\":854:855   */\n      0x00\n        /* \"#utility.yul\":847:862   */\n      revert\n        /* \"#utility.yul\":874:1155   */\n    tag_100:\n        /* \"#utility.yul\":957:984   */\n      tag_152\n        /* \"#utility.yul\":979:983   */\n      dup3\n        /* \"#utility.yul\":957:984   */\n      tag_99\n      jump\t// in\n    tag_152:\n        /* \"#utility.yul\":949:955   */\n      dup2\n        /* \"#utility.yul\":945:985   */\n      add\n        /* \"#utility.yul\":1087:1093   */\n      dup2\n        /* \"#utility.yul\":1075:1085   */\n      dup2\n        /* \"#utility.yul\":1072:1094   */\n      lt\n        /* \"#utility.yul\":1051:1069   */\n      0xffffffffffffffff\n        /* \"#utility.yul\":1039:1049   */\n      dup3\n        /* \"#utility.yul\":1036:1070   */\n      gt\n        /* \"#utility.yul\":1033:1095   */\n      or\n        /* \"#utility.yul\":1030:1118   */\n      iszero\n      tag_153\n      jumpi\n        /* \"#utility.yul\":1098:1116   */\n      tag_154\n      tag_51\n      jump\t// in\n    tag_154:\n        /* \"#utility.yul\":1030:1118   */\n    tag_153:\n        /* \"#utility.yul\":1138:1148   */\n      dup1\n        /* \"#utility.yul\":1134:1136   */\n      0x40\n        /* \"#utility.yul\":1127:1149   */\n      mstore\n        /* \"#utility.yul\":917:1155   */\n      pop\n        /* \"#utility.yul\":874:1155   */\n      pop\n      pop\n      jump\t// out\n        /* \"#utility.yul\":1161:1290   */\n    tag_101:\n        /* \"#utility.yul\":1195:1201   */\n      0x00\n        /* \"#utility.yul\":1222:1242   */\n      tag_156\n      tag_94\n      jump\t// in\n    tag_156:\n        /* \"#utility.yul\":1212:1242   */\n      swap1\n      pop\n        /* \"#utility.yul\":1251:1284   */\n      tag_157\n        /* \"#utility.yul\":1279:1283   */\n      dup3\n        /* \"#utility.yul\":1271:1277   */\n      dup3\n        /* \"#utility.yul\":1251:1284   */\n      tag_100\n      jump\t// in\n    tag_157:\n        /* \"#utility.yul\":1161:1290   */\n      swap2\n      swap1\n      pop\n      jump\t// out\n        /* \"#utility.yul\":1296:1604   */\n    tag_102:\n        /* \"#utility.yul\":1358:1362   */\n      0x00\n        /* \"#utility.yul\":1448:1466   */\n      0xffffffffffffffff\n        /* \"#utility.yul\":1440:1446   */\n      dup3\n        /* \"#utility.yul\":1437:1467   */\n      gt\n        /* \"#utility.yul\":1434:1490   */\n      iszero\n      tag_159\n      jumpi\n        /* \"#utility.yul\":1470:1488   */\n      tag_160\n      tag_51\n      jump\t// in\n    tag_160:\n        /* \"#utility.yul\":1434:1490   */\n    tag_159:\n        /* \"#utility.yul\":1508:1537   */\n      tag_161\n        /* \"#utility.yul\":1530:1536   */\n      dup3\n        /* \"#utility.yul\":1508:1537   */\n      tag_99\n      jump\t// in\n    tag_161:\n        /* \"#utility.yul\":1500:1537   */\n      swap1\n      pop\n        /* \"#utility.yul\":1592:1596   */\n      0x20\n        /* \"#utility.yul\":1586:1590   */\n      dup2\n        /* \"#utility.yul\":1582:1597   */\n      add\n        /* \"#utility.yul\":1574:1597   */\n      swap1\n      pop\n        /* \"#utility.yul\":1296:1604   */\n      swap2\n      swap1\n      pop\n      jump\t// out\n        /* \"#utility.yul\":1610:1758   */\n    tag_103:\n        /* \"#utility.yul\":1708:1714   */\n      dup3\n        /* \"#utility.yul\":1703:1706   */\n      dup2\n        /* \"#utility.yul\":1698:1701   */\n      dup4\n        /* \"#utility.yul\":1685:1715   */\n      calldatacopy\n        /* \"#utility.yul\":1749:1750   */\n      0x00\n        /* \"#utility.yul\":1740:1746   */\n      dup4\n        /* \"#utility.yul\":1735:1738   */\n      dup4\n        /* \"#utility.yul\":1731:1747   */\n      add\n        /* \"#utility.yul\":1724:1751   */\n      mstore\n        /* \"#utility.yul\":1610:1758   */\n      pop\n      pop\n      pop\n      jump\t// out\n        /* \"#utility.yul\":1764:2189   */\n    tag_104:\n        /* \"#utility.yul\":1842:1847   */\n      0x00\n        /* \"#utility.yul\":1867:1933   */\n      tag_164\n        /* \"#utility.yul\":1883:1932   */\n      tag_165\n        /* \"#utility.yul\":1925:1931   */\n      dup5\n        /* \"#utility.yul\":1883:1932   */\n      tag_102\n      jump\t// in\n    tag_165:\n        /* \"#utility.yul\":1867:1933   */\n      tag_101\n      jump\t// in\n    tag_164:\n        /* \"#utility.yul\":1858:1933   */\n      swap1\n      pop\n        /* \"#utility.yul\":1956:1962   */\n      dup3\n        /* \"#utility.yul\":1949:1954   */\n      dup2\n        /* \"#utility.yul\":1942:1963   */\n      mstore\n        /* \"#utility.yul\":1994:1998   */\n      0x20\n        /* \"#utility.yul\":1987:1992   */\n      dup2\n        /* \"#utility.yul\":1983:1999   */\n      add\n        /* \"#utility.yul\":2032:2035   */\n      dup5\n        /* \"#utility.yul\":2023:2029   */\n      dup5\n        /* \"#utility.yul\":2018:2021   */\n      dup5\n        /* \"#utility.yul\":2014:2030   */\n      add\n        /* \"#utility.yul\":2011:2036   */\n      gt\n        /* \"#utility.yul\":2008:2120   */\n      iszero\n      tag_166\n      jumpi\n        /* \"#utility.yul\":2039:2118   */\n      tag_167\n      tag_98\n      jump\t// in\n    tag_167:\n        /* \"#utility.yul\":2008:2120   */\n    tag_166:\n        /* \"#utility.yul\":2129:2183   */\n      tag_168\n        /* \"#utility.yul\":2176:2182   */\n      dup5\n        /* \"#utility.yul\":2171:2174   */\n      dup3\n        /* \"#utility.yul\":2166:2169   */\n      dup6\n        /* \"#utility.yul\":2129:2183   */\n      tag_103\n      jump\t// in\n    tag_168:\n        /* \"#utility.yul\":1848:2189   */\n      pop\n        /* \"#utility.yul\":1764:2189   */\n      swap4\n      swap3\n      pop\n      pop\n      pop\n      jump\t// out\n        /* \"#utility.yul\":2209:2549   */\n    tag_105:\n        /* \"#utility.yul\":2265:2270   */\n      0x00\n        /* \"#utility.yul\":2314:2317   */\n      dup3\n        /* \"#utility.yul\":2307:2311   */\n      0x1f\n        /* \"#utility.yul\":2299:2305   */\n      dup4\n        /* \"#utility.yul\":2295:2312   */\n      add\n        /* \"#utility.yul\":2291:2318   */\n      slt\n        /* \"#utility.yul\":2281:2403   */\n      tag_170\n      jumpi\n        /* \"#utility.yul\":2322:2401   */\n      tag_171\n      tag_97\n      jump\t// in\n    tag_171:\n        /* \"#utility.yul\":2281:2403   */\n    tag_170:\n        /* \"#utility.yul\":2439:2445   */\n      dup2\n        /* \"#utility.yul\":2426:2446   */\n      calldataload\n        /* \"#utility.yul\":2464:2543   */\n      tag_172\n        /* \"#utility.yul\":2539:2542   */\n      dup5\n        /* \"#utility.yul\":2531:2537   */\n      dup3\n        /* \"#utility.yul\":2524:2528   */\n      0x20\n        /* \"#utility.yul\":2516:2522   */\n      dup7\n        /* \"#utility.yul\":2512:2529   */\n      add\n        /* \"#utility.yul\":2464:2543   */\n      tag_104\n      jump\t// in\n    tag_172:\n        /* \"#utility.yul\":2455:2543   */\n      swap2\n      pop\n        /* \"#utility.yul\":2271:2549   */\n      pop\n        /* \"#utility.yul\":2209:2549   */\n      swap3\n      swap2\n      pop\n      pop\n      jump\t// out\n        /* \"#utility.yul\":2555:2662   */\n    tag_106:\n        /* \"#utility.yul\":2636:2637   */\n      0x03\n        /* \"#utility.yul\":2629:2634   */\n      dup2\n        /* \"#utility.yul\":2626:2638   */\n      lt\n        /* \"#utility.yul\":2616:2656   */\n      tag_174\n      jumpi\n        /* \"#utility.yul\":2652:2653   */\n      0x00\n        /* \"#utility.yul\":2649:2650   */\n      0x00\n        /* \"#utility.yul\":2642:2654   */\n      revert\n        /* \"#utility.yul\":2616:2656   */\n    tag_174:\n        /* \"#utility.yul\":2555:2662   */\n      pop\n      jump\t// out\n        /* \"#utility.yul\":2668:2823   */\n    tag_107:\n        /* \"#utility.yul\":2722:2727   */\n      0x00\n        /* \"#utility.yul\":2760:2766   */\n      dup2\n        /* \"#utility.yul\":2747:2767   */\n      calldataload\n        /* \"#utility.yul\":2738:2767   */\n      swap1\n      pop\n        /* \"#utility.yul\":2776:2817   */\n      tag_176\n        /* \"#utility.yul\":2811:2816   */\n      dup2\n        /* \"#utility.yul\":2776:2817   */\n      tag_106\n      jump\t// in\n    tag_176:\n        /* \"#utility.yul\":2668:2823   */\n      swap3\n      swap2\n      pop\n      pop\n      jump\t// out\n        /* \"#utility.yul\":2829:3824   */\n    tag_9:\n        /* \"#utility.yul\":2934:2940   */\n      0x00\n        /* \"#utility.yul\":2942:2948   */\n      0x00\n        /* \"#utility.yul\":2950:2956   */\n      0x00\n        /* \"#utility.yul\":2999:3001   */\n      0x60\n        /* \"#utility.yul\":2987:2996   */\n      dup5\n        /* \"#utility.yul\":2978:2985   */\n      dup7\n        /* \"#utility.yul\":2974:2997   */\n      sub\n        /* \"#utility.yul\":2970:3002   */\n      slt\n        /* \"#utility.yul\":2967:3086   */\n      iszero\n      tag_178\n      jumpi\n        /* \"#utility.yul\":3005:3084   */\n      tag_179\n      tag_95\n      jump\t// in\n    tag_179:\n        /* \"#utility.yul\":2967:3086   */\n    tag_178:\n        /* \"#utility.yul\":3153:3154   */\n      0x00\n        /* \"#utility.yul\":3142:3151   */\n      dup5\n        /* \"#utility.yul\":3138:3155   */\n      add\n        /* \"#utility.yul\":3125:3156   */\n      calldataload\n        /* \"#utility.yul\":3183:3201   */\n      0xffffffffffffffff\n        /* \"#utility.yul\":3175:3181   */\n      dup2\n        /* \"#utility.yul\":3172:3202   */\n      gt\n        /* \"#utility.yul\":3169:3286   */\n      iszero\n      tag_180\n      jumpi\n        /* \"#utility.yul\":3205:3284   */\n      tag_181\n      tag_96\n      jump\t// in\n    tag_181:\n        /* \"#utility.yul\":3169:3286   */\n    tag_180:\n        /* \"#utility.yul\":3310:3373   */\n      tag_182\n        /* \"#utility.yul\":3365:3372   */\n      dup7\n        /* \"#utility.yul\":3356:3362   */\n      dup3\n        /* \"#utility.yul\":3345:3354   */\n      dup8\n        /* \"#utility.yul\":3341:3363   */\n      add\n        /* \"#utility.yul\":3310:3373   */\n      tag_105\n      jump\t// in\n    tag_182:\n        /* \"#utility.yul\":3300:3373   */\n      swap4\n      pop\n        /* \"#utility.yul\":3096:3383   */\n      pop\n        /* \"#utility.yul\":3450:3452   */\n      0x20\n        /* \"#utility.yul\":3439:3448   */\n      dup5\n        /* \"#utility.yul\":3435:3453   */\n      add\n        /* \"#utility.yul\":3422:3454   */\n      calldataload\n        /* \"#utility.yul\":3481:3499   */\n      0xffffffffffffffff\n        /* \"#utility.yul\":3473:3479   */\n      dup2\n        /* \"#utility.yul\":3470:3500   */\n      gt\n        /* \"#utility.yul\":3467:3584   */\n      iszero\n      tag_183\n      jumpi\n        /* \"#utility.yul\":3503:3582   */\n      tag_184\n      tag_96\n      jump\t// in\n    tag_184:\n        /* \"#utility.yul\":3467:3584   */\n    tag_183:\n        /* \"#utility.yul\":3608:3671   */\n      tag_185\n        /* \"#utility.yul\":3663:3670   */\n      dup7\n        /* \"#utility.yul\":3654:3660   */\n      dup3\n        /* \"#utility.yul\":3643:3652   */\n      dup8\n        /* \"#utility.yul\":3639:3661   */\n      add\n        /* \"#utility.yul\":3608:3671   */\n      tag_105\n      jump\t// in\n    tag_185:\n        /* \"#utility.yul\":3598:3671   */\n      swap3\n      pop\n        /* \"#utility.yul\":3393:3681   */\n      pop\n        /* \"#utility.yul\":3720:3722   */\n      0x40\n        /* \"#utility.yul\":3746:3807   */\n      tag_186\n        /* \"#utility.yul\":3799:3806   */\n      dup7\n        /* \"#utility.yul\":3790:3796   */\n      dup3\n        /* \"#utility.yul\":3779:3788   */\n      dup8\n        /* \"#utility.yul\":3775:3797   */\n      add\n        /* \"#utility.yul\":3746:3807   */\n      tag_107\n      jump\t// in\n    tag_186:\n        /* \"#utility.yul\":3736:3807   */\n      swap2\n      pop\n        /* \"#utility.yul\":3691:3817   */\n      pop\n        /* \"#utility.yul\":2829:3824   */\n      swap3\n      pop\n      swap3\n      pop\n      swap3\n      jump\t// out\n        /* \"#utility.yul\":3830:4175   */\n    tag_13:\n        /* \"#utility.yul\":3897:3903   */\n      0x00\n        /* \"#utility.yul\":3946:3948   */\n      0x20\n        /* \"#utility.yul\":3934:3943   */\n      dup3\n        /* \"#utility.yul\":3925:3932   */\n      dup5\n        /* \"#utility.yul\":3921:3944   */\n      sub\n        /* \"#utility.yul\":3917:3949   */\n      slt\n        /* \"#utility.yul\":3914:4033   */\n      iszero\n      tag_188\n      jumpi\n        /* \"#utility.yul\":3952:4031   */\n      tag_189\n      tag_95\n      jump\t// in\n    tag_189:\n        /* \"#utility.yul\":3914:4033   */\n    tag_188:\n        /* \"#utility.yul\":4072:4073   */\n      0x00\n        /* \"#utility.yul\":4097:4158   */\n      tag_190\n        /* \"#utility.yul\":4150:4157   */\n      dup5\n        /* \"#utility.yul\":4141:4147   */\n      dup3\n        /* \"#utility.yul\":4130:4139   */\n      dup6\n        /* \"#utility.yul\":4126:4148   */\n      add\n        /* \"#utility.yul\":4097:4158   */\n      tag_107\n      jump\t// in\n    tag_190:\n        /* \"#utility.yul\":4087:4158   */\n      swap2\n      pop\n        /* \"#utility.yul\":4043:4168   */\n      pop\n        /* \"#utility.yul\":3830:4175   */\n      swap3\n      swap2\n      pop\n      pop\n      jump\t// out\n        /* \"#utility.yul\":4181:4320   */\n    tag_108:\n        /* \"#utility.yul\":4273:4279   */\n      0x00\n        /* \"#utility.yul\":4307:4312   */\n      dup2\n        /* \"#utility.yul\":4301:4313   */\n      mload\n        /* \"#utility.yul\":4291:4313   */\n      swap1\n      pop\n        /* \"#utility.yul\":4181:4320   */\n      swap2\n      swap1\n      pop\n      jump\t// out\n        /* \"#utility.yul\":4326:4535   */\n    tag_109:\n        /* \"#utility.yul\":4450:4461   */\n      0x00\n        /* \"#utility.yul\":4484:4490   */\n      dup3\n        /* \"#utility.yul\":4479:4482   */\n      dup3\n        /* \"#utility.yul\":4472:4491   */\n      mstore\n        /* \"#utility.yul\":4524:4528   */\n      0x20\n        /* \"#utility.yul\":4519:4522   */\n      dup3\n        /* \"#utility.yul\":4515:4529   */\n      add\n        /* \"#utility.yul\":4500:4529   */\n      swap1\n      pop\n        /* \"#utility.yul\":4326:4535   */\n      swap3\n      swap2\n      pop\n      pop\n      jump\t// out\n        /* \"#utility.yul\":4541:4698   */\n    tag_110:\n        /* \"#utility.yul\":4633:4637   */\n      0x00\n        /* \"#utility.yul\":4656:4659   */\n      dup2\n        /* \"#utility.yul\":4648:4659   */\n      swap1\n      pop\n        /* \"#utility.yul\":4686:4690   */\n      0x20\n        /* \"#utility.yul\":4681:4684   */\n      dup3\n        /* \"#utility.yul\":4677:4691   */\n      add\n        /* \"#utility.yul\":4669:4691   */\n      swap1\n      pop\n        /* \"#utility.yul\":4541:4698   */\n      swap2\n      swap1\n      pop\n      jump\t// out\n        /* \"#utility.yul\":4704:4803   */\n    tag_111:\n        /* \"#utility.yul\":4756:4762   */\n      0x00\n        /* \"#utility.yul\":4790:4795   */\n      dup2\n        /* \"#utility.yul\":4784:4796   */\n      mload\n        /* \"#utility.yul\":4774:4796   */\n      swap1\n      pop\n        /* \"#utility.yul\":4704:4803   */\n      swap2\n      swap1\n      pop\n      jump\t// out\n        /* \"#utility.yul\":4809:4968   */\n    tag_112:\n        /* \"#utility.yul\":4883:4894   */\n      0x00\n        /* \"#utility.yul\":4917:4923   */\n      dup3\n        /* \"#utility.yul\":4912:4915   */\n      dup3\n        /* \"#utility.yul\":4905:4924   */\n      mstore\n        /* \"#utility.yul\":4957:4961   */\n      0x20\n        /* \"#utility.yul\":4952:4955   */\n      dup3\n        /* \"#utility.yul\":4948:4962   */\n      add\n        /* \"#utility.yul\":4933:4962   */\n      swap1\n      pop\n        /* \"#utility.yul\":4809:4968   */\n      swap3\n      swap2\n      pop\n      pop\n      jump\t// out\n        /* \"#utility.yul\":4974:5113   */\n    tag_113:\n        /* \"#utility.yul\":5063:5069   */\n      dup3\n        /* \"#utility.yul\":5058:5061   */\n      dup2\n        /* \"#utility.yul\":5053:5056   */\n      dup4\n        /* \"#utility.yul\":5047:5070   */\n      mcopy\n        /* \"#utility.yul\":5104:5105   */\n      0x00\n        /* \"#utility.yul\":5095:5101   */\n      dup4\n        /* \"#utility.yul\":5090:5093   */\n      dup4\n        /* \"#utility.yul\":5086:5102   */\n      add\n        /* \"#utility.yul\":5079:5106   */\n      mstore\n        /* \"#utility.yul\":4974:5113   */\n      pop\n      pop\n      pop\n      jump\t// out\n        /* \"#utility.yul\":5119:5476   */\n    tag_114:\n        /* \"#utility.yul\":5197:5200   */\n      0x00\n        /* \"#utility.yul\":5225:5264   */\n      tag_198\n        /* \"#utility.yul\":5258:5263   */\n      dup3\n        /* \"#utility.yul\":5225:5264   */\n      tag_111\n      jump\t// in\n    tag_198:\n        /* \"#utility.yul\":5280:5341   */\n      tag_199\n        /* \"#utility.yul\":5334:5340   */\n      dup2\n        /* \"#utility.yul\":5329:5332   */\n      dup6\n        /* \"#utility.yul\":5280:5341   */\n      tag_112\n      jump\t// in\n    tag_199:\n        /* \"#utility.yul\":5273:5341   */\n      swap4\n      pop\n        /* \"#utility.yul\":5350:5415   */\n      tag_200\n        /* \"#utility.yul\":5408:5414   */\n      dup2\n        /* \"#utility.yul\":5403:5406   */\n      dup6\n        /* \"#utility.yul\":5396:5400   */\n      0x20\n        /* \"#utility.yul\":5389:5394   */\n      dup7\n        /* \"#utility.yul\":5385:5401   */\n      add\n        /* \"#utility.yul\":5350:5415   */\n      tag_113\n      jump\t// in\n    tag_200:\n        /* \"#utility.yul\":5440:5469   */\n      tag_201\n        /* \"#utility.yul\":5462:5468   */\n      dup2\n        /* \"#utility.yul\":5440:5469   */\n      tag_99\n      jump\t// in\n    tag_201:\n        /* \"#utility.yul\":5435:5438   */\n      dup5\n        /* \"#utility.yul\":5431:5470   */\n      add\n        /* \"#utility.yul\":5424:5470   */\n      swap2\n      pop\n        /* \"#utility.yul\":5201:5476   */\n      pop\n        /* \"#utility.yul\":5119:5476   */\n      swap3\n      swap2\n      pop\n      pop\n      jump\t// out\n        /* \"#utility.yul\":5482:5662   */\n    tag_27:\n        /* \"#utility.yul\":5530:5607   */\n      0x4e487b7100000000000000000000000000000000000000000000000000000000\n        /* \"#utility.yul\":5527:5528   */\n      0x00\n        /* \"#utility.yul\":5520:5608   */\n      mstore\n        /* \"#utility.yul\":5627:5631   */\n      0x21\n        /* \"#utility.yul\":5624:5625   */\n      0x04\n        /* \"#utility.yul\":5617:5632   */\n      mstore\n        /* \"#utility.yul\":5651:5655   */\n      0x24\n        /* \"#utility.yul\":5648:5649   */\n      0x00\n        /* \"#utility.yul\":5641:5656   */\n      revert\n        /* \"#utility.yul\":5668:5781   */\n    tag_115:\n        /* \"#utility.yul\":5749:5750   */\n      0x03\n        /* \"#utility.yul\":5742:5747   */\n      dup2\n        /* \"#utility.yul\":5739:5751   */\n      lt\n        /* \"#utility.yul\":5729:5775   */\n      tag_204\n      jumpi\n        /* \"#utility.yul\":5755:5773   */\n      tag_205\n      tag_27\n      jump\t// in\n    tag_205:\n        /* \"#utility.yul\":5729:5775   */\n    tag_204:\n        /* \"#utility.yul\":5668:5781   */\n      pop\n      jump\t// out\n        /* \"#utility.yul\":5787:5914   */\n    tag_116:\n        /* \"#utility.yul\":5832:5839   */\n      0x00\n        /* \"#utility.yul\":5861:5866   */\n      dup2\n        /* \"#utility.yul\":5850:5866   */\n      swap1\n      pop\n        /* \"#utility.yul\":5867:5908   */\n      tag_207\n        /* \"#utility.yul\":5902:5907   */\n      dup3\n        /* \"#utility.yul\":5867:5908   */\n      tag_115\n      jump\t// in\n    tag_207:\n        /* \"#utility.yul\":5787:5914   */\n      swap2\n      swap1\n      pop\n      jump\t// out\n        /* \"#utility.yul\":5920:6047   */\n    tag_117:\n        /* \"#utility.yul\":5976:5985   */\n      0x00\n        /* \"#utility.yul\":6009:6041   */\n      tag_209\n        /* \"#utility.yul\":6035:6040   */\n      dup3\n        /* \"#utility.yul\":6009:6041   */\n      tag_116\n      jump\t// in\n    tag_209:\n        /* \"#utility.yul\":5996:6041   */\n      swap1\n      pop\n        /* \"#utility.yul\":5920:6047   */\n      swap2\n      swap1\n      pop\n      jump\t// out\n        /* \"#utility.yul\":6053:6186   */\n    tag_118:\n        /* \"#utility.yul\":6136:6179   */\n      tag_211\n        /* \"#utility.yul\":6173:6178   */\n      dup2\n        /* \"#utility.yul\":6136:6179   */\n      tag_117\n      jump\t// in\n    tag_211:\n        /* \"#utility.yul\":6131:6134   */\n      dup3\n        /* \"#utility.yul\":6124:6180   */\n      mstore\n        /* \"#utility.yul\":6053:6186   */\n      pop\n      pop\n      jump\t// out\n        /* \"#utility.yul\":6192:6269   */\n    tag_119:\n        /* \"#utility.yul\":6229:6236   */\n      0x00\n        /* \"#utility.yul\":6258:6263   */\n      dup2\n        /* \"#utility.yul\":6247:6263   */\n      swap1\n      pop\n        /* \"#utility.yul\":6192:6269   */\n      swap2\n      swap1\n      pop\n      jump\t// out\n        /* \"#utility.yul\":6275:6383   */\n    tag_120:\n        /* \"#utility.yul\":6352:6376   */\n      tag_214\n        /* \"#utility.yul\":6370:6375   */\n      dup2\n        /* \"#utility.yul\":6352:6376   */\n      tag_119\n      jump\t// in\n    tag_214:\n        /* \"#utility.yul\":6347:6350   */\n      dup3\n        /* \"#utility.yul\":6340:6377   */\n      mstore\n        /* \"#utility.yul\":6275:6383   */\n      pop\n      pop\n      jump\t// out\n        /* \"#utility.yul\":6445:7477   */\n    tag_121:\n        /* \"#utility.yul\":6554:6557   */\n      0x00\n        /* \"#utility.yul\":6590:6594   */\n      0x80\n        /* \"#utility.yul\":6585:6588   */\n      dup4\n        /* \"#utility.yul\":6581:6595   */\n      add\n        /* \"#utility.yul\":6678:6682   */\n      0x00\n        /* \"#utility.yul\":6671:6676   */\n      dup4\n        /* \"#utility.yul\":6667:6683   */\n      add\n        /* \"#utility.yul\":6661:6684   */\n      mload\n        /* \"#utility.yul\":6731:6734   */\n      dup5\n        /* \"#utility.yul\":6725:6729   */\n      dup3\n        /* \"#utility.yul\":6721:6735   */\n      sub\n        /* \"#utility.yul\":6714:6718   */\n      0x00\n        /* \"#utility.yul\":6709:6712   */\n      dup7\n        /* \"#utility.yul\":6705:6719   */\n      add\n        /* \"#utility.yul\":6698:6736   */\n      mstore\n        /* \"#utility.yul\":6757:6830   */\n      tag_216\n        /* \"#utility.yul\":6825:6829   */\n      dup3\n        /* \"#utility.yul\":6811:6823   */\n      dup3\n        /* \"#utility.yul\":6757:6830   */\n      tag_114\n      jump\t// in\n    tag_216:\n        /* \"#utility.yul\":6749:6830   */\n      swap2\n      pop\n        /* \"#utility.yul\":6605:6841   */\n      pop\n        /* \"#utility.yul\":6926:6930   */\n      0x20\n        /* \"#utility.yul\":6919:6924   */\n      dup4\n        /* \"#utility.yul\":6915:6931   */\n      add\n        /* \"#utility.yul\":6909:6932   */\n      mload\n        /* \"#utility.yul\":6979:6982   */\n      dup5\n        /* \"#utility.yul\":6973:6977   */\n      dup3\n        /* \"#utility.yul\":6969:6983   */\n      sub\n        /* \"#utility.yul\":6962:6966   */\n      0x20\n        /* \"#utility.yul\":6957:6960   */\n      dup7\n        /* \"#utility.yul\":6953:6967   */\n      add\n        /* \"#utility.yul\":6946:6984   */\n      mstore\n        /* \"#utility.yul\":7005:7078   */\n      tag_217\n        /* \"#utility.yul\":7073:7077   */\n      dup3\n        /* \"#utility.yul\":7059:7071   */\n      dup3\n        /* \"#utility.yul\":7005:7078   */\n      tag_114\n      jump\t// in\n    tag_217:\n        /* \"#utility.yul\":6997:7078   */\n      swap2\n      pop\n        /* \"#utility.yul\":6851:7089   */\n      pop\n        /* \"#utility.yul\":7173:7177   */\n      0x40\n        /* \"#utility.yul\":7166:7171   */\n      dup4\n        /* \"#utility.yul\":7162:7178   */\n      add\n        /* \"#utility.yul\":7156:7179   */\n      mload\n        /* \"#utility.yul\":7192:7261   */\n      tag_218\n        /* \"#utility.yul\":7255:7259   */\n      0x40\n        /* \"#utility.yul\":7250:7253   */\n      dup7\n        /* \"#utility.yul\":7246:7260   */\n      add\n        /* \"#utility.yul\":7232:7244   */\n      dup3\n        /* \"#utility.yul\":7192:7261   */\n      tag_118\n      jump\t// in\n    tag_218:\n        /* \"#utility.yul\":7099:7271   */\n      pop\n        /* \"#utility.yul\":7358:7362   */\n      0x60\n        /* \"#utility.yul\":7351:7356   */\n      dup4\n        /* \"#utility.yul\":7347:7363   */\n      add\n        /* \"#utility.yul\":7341:7364   */\n      mload\n        /* \"#utility.yul\":7377:7440   */\n      tag_219\n        /* \"#utility.yul\":7434:7438   */\n      0x60\n        /* \"#utility.yul\":7429:7432   */\n      dup7\n        /* \"#utility.yul\":7425:7439   */\n      add\n        /* \"#utility.yul\":7411:7423   */\n      dup3\n        /* \"#utility.yul\":7377:7440   */\n      tag_120\n      jump\t// in\n    tag_219:\n        /* \"#utility.yul\":7281:7450   */\n      pop\n        /* \"#utility.yul\":7467:7471   */\n      dup1\n        /* \"#utility.yul\":7460:7471   */\n      swap2\n      pop\n        /* \"#utility.yul\":6559:7477   */\n      pop\n        /* \"#utility.yul\":6445:7477   */\n      swap3\n      swap2\n      pop\n      pop\n      jump\t// out\n        /* \"#utility.yul\":7483:7739   */\n    tag_122:\n        /* \"#utility.yul\":7602:7612   */\n      0x00\n        /* \"#utility.yul\":7637:7733   */\n      tag_221\n        /* \"#utility.yul\":7729:7732   */\n      dup4\n        /* \"#utility.yul\":7721:7727   */\n      dup4\n        /* \"#utility.yul\":7637:7733   */\n      tag_121\n      jump\t// in\n    tag_221:\n        /* \"#utility.yul\":7623:7733   */\n      swap1\n      pop\n        /* \"#utility.yul\":7483:7739   */\n      swap3\n      swap2\n      pop\n      pop\n      jump\t// out\n        /* \"#utility.yul\":7745:7883   */\n    tag_123:\n        /* \"#utility.yul\":7840:7844   */\n      0x00\n        /* \"#utility.yul\":7872:7876   */\n      0x20\n        /* \"#utility.yul\":7867:7870   */\n      dup3\n        /* \"#utility.yul\":7863:7877   */\n      add\n        /* \"#utility.yul\":7855:7877   */\n      swap1\n      pop\n        /* \"#utility.yul\":7745:7883   */\n      swap2\n      swap1\n      pop\n      jump\t// out\n        /* \"#utility.yul\":7949:9060   */\n    tag_124:\n        /* \"#utility.yul\":8118:8121   */\n      0x00\n        /* \"#utility.yul\":8147:8226   */\n      tag_224\n        /* \"#utility.yul\":8220:8225   */\n      dup3\n        /* \"#utility.yul\":8147:8226   */\n      tag_108\n      jump\t// in\n    tag_224:\n        /* \"#utility.yul\":8242:8353   */\n      tag_225\n        /* \"#utility.yul\":8346:8352   */\n      dup2\n        /* \"#utility.yul\":8341:8344   */\n      dup6\n        /* \"#utility.yul\":8242:8353   */\n      tag_109\n      jump\t// in\n    tag_225:\n        /* \"#utility.yul\":8235:8353   */\n      swap4\n      pop\n        /* \"#utility.yul\":8379:8382   */\n      dup4\n        /* \"#utility.yul\":8424:8428   */\n      0x20\n        /* \"#utility.yul\":8416:8422   */\n      dup3\n        /* \"#utility.yul\":8412:8429   */\n      mul\n        /* \"#utility.yul\":8407:8410   */\n      dup6\n        /* \"#utility.yul\":8403:8430   */\n      add\n        /* \"#utility.yul\":8454:8535   */\n      tag_226\n        /* \"#utility.yul\":8529:8534   */\n      dup6\n        /* \"#utility.yul\":8454:8535   */\n      tag_110\n      jump\t// in\n    tag_226:\n        /* \"#utility.yul\":8558:8565   */\n      dup1\n        /* \"#utility.yul\":8589:8590   */\n      0x00\n        /* \"#utility.yul\":8574:9015   */\n    tag_227:\n        /* \"#utility.yul\":8599:8605   */\n      dup6\n        /* \"#utility.yul\":8596:8597   */\n      dup2\n        /* \"#utility.yul\":8593:8606   */\n      lt\n        /* \"#utility.yul\":8574:9015   */\n      iszero\n      tag_229\n      jumpi\n        /* \"#utility.yul\":8670:8679   */\n      dup5\n        /* \"#utility.yul\":8664:8668   */\n      dup5\n        /* \"#utility.yul\":8660:8680   */\n      sub\n        /* \"#utility.yul\":8655:8658   */\n      dup10\n        /* \"#utility.yul\":8648:8681   */\n      mstore\n        /* \"#utility.yul\":8721:8727   */\n      dup2\n        /* \"#utility.yul\":8715:8728   */\n      mload\n        /* \"#utility.yul\":8749:8863   */\n      tag_230\n        /* \"#utility.yul\":8858:8862   */\n      dup6\n        /* \"#utility.yul\":8843:8856   */\n      dup3\n        /* \"#utility.yul\":8749:8863   */\n      tag_122\n      jump\t// in\n    tag_230:\n        /* \"#utility.yul\":8741:8863   */\n      swap5\n      pop\n        /* \"#utility.yul\":8886:8971   */\n      tag_231\n        /* \"#utility.yul\":8964:8970   */\n      dup4\n        /* \"#utility.yul\":8886:8971   */\n      tag_123\n      jump\t// in\n    tag_231:\n        /* \"#utility.yul\":8876:8971   */\n      swap3\n      pop\n        /* \"#utility.yul\":9000:9004   */\n      0x20\n        /* \"#utility.yul\":8995:8998   */\n      dup11\n        /* \"#utility.yul\":8991:9005   */\n      add\n        /* \"#utility.yul\":8984:9005   */\n      swap10\n      pop\n        /* \"#utility.yul\":8634:9015   */\n      pop\n        /* \"#utility.yul\":8621:8622   */\n      0x01\n        /* \"#utility.yul\":8618:8619   */\n      dup2\n        /* \"#utility.yul\":8614:8623   */\n      add\n        /* \"#utility.yul\":8609:8623   */\n      swap1\n      pop\n        /* \"#utility.yul\":8574:9015   */\n      jump(tag_227)\n    tag_229:\n        /* \"#utility.yul\":8578:8592   */\n      pop\n        /* \"#utility.yul\":9031:9035   */\n      dup3\n        /* \"#utility.yul\":9024:9035   */\n      swap8\n      pop\n        /* \"#utility.yul\":9051:9054   */\n      dup8\n        /* \"#utility.yul\":9044:9054   */\n      swap6\n      pop\n        /* \"#utility.yul\":8123:9060   */\n      pop\n      pop\n      pop\n      pop\n      pop\n        /* \"#utility.yul\":7949:9060   */\n      swap3\n      swap2\n      pop\n      pop\n      jump\t// out\n        /* \"#utility.yul\":9066:9539   */\n    tag_16:\n        /* \"#utility.yul\":9259:9263   */\n      0x00\n        /* \"#utility.yul\":9297:9299   */\n      0x20\n        /* \"#utility.yul\":9286:9295   */\n      dup3\n        /* \"#utility.yul\":9282:9300   */\n      add\n        /* \"#utility.yul\":9274:9300   */\n      swap1\n      pop\n        /* \"#utility.yul\":9346:9355   */\n      dup2\n        /* \"#utility.yul\":9340:9344   */\n      dup2\n        /* \"#utility.yul\":9336:9356   */\n      sub\n        /* \"#utility.yul\":9332:9333   */\n      0x00\n        /* \"#utility.yul\":9321:9330   */\n      dup4\n        /* \"#utility.yul\":9317:9334   */\n      add\n        /* \"#utility.yul\":9310:9357   */\n      mstore\n        /* \"#utility.yul\":9374:9532   */\n      tag_233\n        /* \"#utility.yul\":9527:9531   */\n      dup2\n        /* \"#utility.yul\":9518:9524   */\n      dup5\n        /* \"#utility.yul\":9374:9532   */\n      tag_124\n      jump\t// in\n    tag_233:\n        /* \"#utility.yul\":9366:9532   */\n      swap1\n      pop\n        /* \"#utility.yul\":9066:9539   */\n      swap3\n      swap2\n      pop\n      pop\n      jump\t// out\n        /* \"#utility.yul\":9545:9688   */\n    tag_125:\n        /* \"#utility.yul\":9638:9681   */\n      tag_235\n        /* \"#utility.yul\":9675:9680   */\n      dup2\n        /* \"#utility.yul\":9638:9681   */\n      tag_117\n      jump\t// in\n    tag_235:\n        /* \"#utility.yul\":9633:9636   */\n      dup3\n        /* \"#utility.yul\":9626:9682   */\n      mstore\n        /* \"#utility.yul\":9545:9688   */\n      pop\n      pop\n      jump\t// out\n        /* \"#utility.yul\":9694:9928   */\n    tag_23:\n        /* \"#utility.yul\":9793:9797   */\n      0x00\n        /* \"#utility.yul\":9831:9833   */\n      0x20\n        /* \"#utility.yul\":9820:9829   */\n      dup3\n        /* \"#utility.yul\":9816:9834   */\n      add\n        /* \"#utility.yul\":9808:9834   */\n      swap1\n      pop\n        /* \"#utility.yul\":9844:9921   */\n      tag_237\n        /* \"#utility.yul\":9918:9919   */\n      0x00\n        /* \"#utility.yul\":9907:9916   */\n      dup4\n        /* \"#utility.yul\":9903:9920   */\n      add\n        /* \"#utility.yul\":9894:9900   */\n      dup5\n        /* \"#utility.yul\":9844:9921   */\n      tag_125\n      jump\t// in\n    tag_237:\n        /* \"#utility.yul\":9694:9928   */\n      swap3\n      swap2\n      pop\n      pop\n      jump\t// out\n        /* \"#utility.yul\":9934:10114   */\n    tag_126:\n        /* \"#utility.yul\":9982:10059   */\n      0x4e487b7100000000000000000000000000000000000000000000000000000000\n        /* \"#utility.yul\":9979:9980   */\n      0x00\n        /* \"#utility.yul\":9972:10060   */\n      mstore\n        /* \"#utility.yul\":10079:10083   */\n      0x22\n        /* \"#utility.yul\":10076:10077   */\n      0x04\n        /* \"#utility.yul\":10069:10084   */\n      mstore\n        /* \"#utility.yul\":10103:10107   */\n      0x24\n        /* \"#utility.yul\":10100:10101   */\n      0x00\n        /* \"#utility.yul\":10093:10108   */\n      revert\n        /* \"#utility.yul\":10120:10440   */\n    tag_71:\n        /* \"#utility.yul\":10164:10170   */\n      0x00\n        /* \"#utility.yul\":10201:10202   */\n      0x02\n        /* \"#utility.yul\":10195:10199   */\n      dup3\n        /* \"#utility.yul\":10191:10203   */\n      div\n        /* \"#utility.yul\":10181:10203   */\n      swap1\n      pop\n        /* \"#utility.yul\":10248:10249   */\n      0x01\n        /* \"#utility.yul\":10242:10246   */\n      dup3\n        /* \"#utility.yul\":10238:10250   */\n      and\n        /* \"#utility.yul\":10269:10287   */\n      dup1\n        /* \"#utility.yul\":10259:10340   */\n      tag_240\n      jumpi\n        /* \"#utility.yul\":10325:10329   */\n      0x7f\n        /* \"#utility.yul\":10317:10323   */\n      dup3\n        /* \"#utility.yul\":10313:10330   */\n      and\n        /* \"#utility.yul\":10303:10330   */\n      swap2\n      pop\n        /* \"#utility.yul\":10259:10340   */\n    tag_240:\n        /* \"#utility.yul\":10387:10389   */\n      0x20\n        /* \"#utility.yul\":10379:10385   */\n      dup3\n        /* \"#utility.yul\":10376:10390   */\n      lt\n        /* \"#utility.yul\":10356:10374   */\n      dup2\n        /* \"#utility.yul\":10353:10391   */\n      sub\n        /* \"#utility.yul\":10350:10434   */\n      tag_241\n      jumpi\n        /* \"#utility.yul\":10406:10424   */\n      tag_242\n      tag_126\n      jump\t// in\n    tag_242:\n        /* \"#utility.yul\":10350:10434   */\n    tag_241:\n        /* \"#utility.yul\":10171:10440   */\n      pop\n        /* \"#utility.yul\":10120:10440   */\n      swap2\n      swap1\n      pop\n      jump\t// out\n        /* \"#utility.yul\":10446:10587   */\n    tag_127:\n        /* \"#utility.yul\":10495:10499   */\n      0x00\n        /* \"#utility.yul\":10518:10521   */\n      dup2\n        /* \"#utility.yul\":10510:10521   */\n      swap1\n      pop\n        /* \"#utility.yul\":10541:10544   */\n      dup2\n        /* \"#utility.yul\":10538:10539   */\n      0x00\n        /* \"#utility.yul\":10531:10545   */\n      mstore\n        /* \"#utility.yul\":10575:10579   */\n      0x20\n        /* \"#utility.yul\":10572:10573   */\n      0x00\n        /* \"#utility.yul\":10562:10580   */\n      keccak256\n        /* \"#utility.yul\":10554:10580   */\n      swap1\n      pop\n        /* \"#utility.yul\":10446:10587   */\n      swap2\n      swap1\n      pop\n      jump\t// out\n        /* \"#utility.yul\":10593:10686   */\n    tag_128:\n        /* \"#utility.yul\":10630:10636   */\n      0x00\n        /* \"#utility.yul\":10677:10679   */\n      0x20\n        /* \"#utility.yul\":10672:10674   */\n      0x1f\n        /* \"#utility.yul\":10665:10670   */\n      dup4\n        /* \"#utility.yul\":10661:10675   */\n      add\n        /* \"#utility.yul\":10657:10680   */\n      div\n        /* \"#utility.yul\":10647:10680   */\n      swap1\n      pop\n        /* \"#utility.yul\":10593:10686   */\n      swap2\n      swap1\n      pop\n      jump\t// out\n        /* \"#utility.yul\":10692:10799   */\n    tag_129:\n        /* \"#utility.yul\":10736:10744   */\n      0x00\n        /* \"#utility.yul\":10786:10791   */\n      dup3\n        /* \"#utility.yul\":10780:10784   */\n      dup3\n        /* \"#utility.yul\":10776:10792   */\n      shl\n        /* \"#utility.yul\":10755:10792   */\n      swap1\n      pop\n        /* \"#utility.yul\":10692:10799   */\n      swap3\n      swap2\n      pop\n      pop\n      jump\t// out\n        /* \"#utility.yul\":10805:11198   */\n    tag_130:\n        /* \"#utility.yul\":10874:10880   */\n      0x00\n        /* \"#utility.yul\":10924:10925   */\n      0x08\n        /* \"#utility.yul\":10912:10922   */\n      dup4\n        /* \"#utility.yul\":10908:10926   */\n      mul\n        /* \"#utility.yul\":10947:11044   */\n      tag_247\n        /* \"#utility.yul\":10977:11043   */\n      0xffffffffffffffffffffffffffffffffffffffffffffffffffffffffffffffff\n        /* \"#utility.yul\":10966:10975   */\n      dup3\n        /* \"#utility.yul\":10947:11044   */\n      tag_129\n      jump\t// in\n    tag_247:\n        /* \"#utility.yul\":11065:11104   */\n      tag_248\n        /* \"#utility.yul\":11095:11103   */\n      dup7\n        /* \"#utility.yul\":11084:11093   */\n      dup4\n        /* \"#utility.yul\":11065:11104   */\n      tag_129\n      jump\t// in\n    tag_248:\n        /* \"#utility.yul\":11053:11104   */\n      swap6\n      pop\n        /* \"#utility.yul\":11137:11141   */\n      dup1\n        /* \"#utility.yul\":11133:11142   */\n      not\n        /* \"#utility.yul\":11126:11131   */\n      dup5\n        /* \"#utility.yul\":11122:11143   */\n      and\n        /* \"#utility.yul\":11113:11143   */\n      swap4\n      pop\n        /* \"#utility.yul\":11186:11190   */\n      dup1\n        /* \"#utility.yul\":11176:11184   */\n      dup7\n        /* \"#utility.yul\":11172:11191   */\n      and\n        /* \"#utility.yul\":11165:11170   */\n      dup5\n        /* \"#utility.yul\":11162:11192   */\n      or\n        /* \"#utility.yul\":11152:11192   */\n      swap3\n      pop\n        /* \"#utility.yul\":10881:11198   */\n      pop\n      pop\n        /* \"#utility.yul\":10805:11198   */\n      swap4\n      swap3\n      pop\n      pop\n      pop\n      jump\t// out\n        /* \"#utility.yul\":11204:11264   */\n    tag_131:\n        /* \"#utility.yul\":11232:11235   */\n      0x00\n        /* \"#utility.yul\":11253:11258   */\n      dup2\n        /* \"#utility.yul\":11246:11258   */\n      swap1\n      pop\n        /* \"#utility.yul\":11204:11264   */\n      swap2\n      swap1\n      pop\n      jump\t// out\n        /* \"#utility.yul\":11270:11412   */\n    tag_132:\n        /* \"#utility.yul\":11320:11329   */\n      0x00\n        /* \"#utility.yul\":11353:11406   */\n      tag_251\n        /* \"#utility.yul\":11371:11405   */\n      tag_252\n        /* \"#utility.yul\":11380:11404   */\n      tag_253\n        /* \"#utility.yul\":11398:11403   */\n      dup5\n        /* \"#utility.yul\":11380:11404   */\n      tag_119\n      jump\t// in\n    tag_253:\n        /* \"#utility.yul\":11371:11405   */\n      tag_131\n      jump\t// in\n    tag_252:\n        /* \"#utility.yul\":11353:11406   */\n      tag_119\n      jump\t// in\n    tag_251:\n        /* \"#utility.yul\":11340:11406   */\n      swap1\n      pop\n        /* \"#utility.yul\":11270:11412   */\n      swap2\n      swap1\n      pop\n      jump\t// out\n        /* \"#utility.yul\":11418:11493   */\n    tag_133:\n        /* \"#utility.yul\":11461:11464   */\n      0x00\n        /* \"#utility.yul\":11482:11487   */\n      dup2\n        /* \"#utility.yul\":11475:11487   */\n      swap1\n      pop\n        /* \"#utility.yul\":11418:11493   */\n      swap2\n      swap1\n      pop\n      jump\t// out\n        /* \"#utility.yul\":11499:11768   */\n    tag_134:\n        /* \"#utility.yul\":11609:11648   */\n      tag_256\n        /* \"#utility.yul\":11640:11647   */\n      dup4\n        /* \"#utility.yul\":11609:11648   */\n      tag_132\n      jump\t// in\n    tag_256:\n        /* \"#utility.yul\":11670:11761   */\n      tag_257\n        /* \"#utility.yul\":11719:11760   */\n      tag_258\n        /* \"#utility.yul\":11743:11759   */\n      dup3\n        /* \"#utility.yul\":11719:11760   */\n      tag_133\n      jump\t// in\n    tag_258:\n        /* \"#utility.yul\":11711:11717   */\n      dup5\n        /* \"#utility.yul\":11704:11708   */\n      dup5\n        /* \"#utility.yul\":11698:11709   */\n      sload\n        /* \"#utility.yul\":11670:11761   */\n      tag_130\n      jump\t// in\n    tag_257:\n        /* \"#utility.yul\":11664:11668   */\n      dup3\n        /* \"#utility.yul\":11657:11762   */\n      sstore\n        /* \"#utility.yul\":11575:11768   */\n      pop\n        /* \"#utility.yul\":11499:11768   */\n      pop\n      pop\n      pop\n      jump\t// out\n        /* \"#utility.yul\":11774:11847   */\n    tag_135:\n        /* \"#utility.yul\":11819:11822   */\n      0x00\n        /* \"#utility.yul\":11840:11841   */\n      0x00\n        /* \"#utility.yul\":11833:11841   */\n      swap1\n      pop\n        /* \"#utility.yul\":11774:11847   */\n      swap1\n      jump\t// out\n        /* \"#utility.yul\":11853:12042   */\n    tag_136:\n        /* \"#utility.yul\":11930:11962   */\n      tag_261\n      tag_135\n      jump\t// in\n    tag_261:\n        /* \"#utility.yul\":11971:12036   */\n      tag_262\n        /* \"#utility.yul\":12029:12035   */\n      dup2\n        /* \"#utility.yul\":12021:12027   */\n      dup5\n        /* \"#utility.yul\":12015:12019   */\n      dup5\n        /* \"#utility.yul\":11971:12036   */\n      tag_134\n      jump\t// in\n    tag_262:\n        /* \"#utility.yul\":11906:12042   */\n      pop\n        /* \"#utility.yul\":11853:12042   */\n      pop\n      pop\n      jump\t// out\n        /* \"#utility.yul\":12048:12234   */\n    tag_137:\n        /* \"#utility.yul\":12108:12228   */\n    tag_264:\n        /* \"#utility.yul\":12125:12128   */\n      dup2\n        /* \"#utility.yul\":12118:12123   */\n      dup2\n        /* \"#utility.yul\":12115:12129   */\n      lt\n        /* \"#utility.yul\":12108:12228   */\n      iszero\n      tag_266\n      jumpi\n        /* \"#utility.yul\":12179:12218   */\n      tag_267\n        /* \"#utility.yul\":12216:12217   */\n      0x00\n        /* \"#utility.yul\":12209:12214   */\n      dup3\n        /* \"#utility.yul\":12179:12218   */\n      tag_136\n      jump\t// in\n    tag_267:\n        /* \"#utility.yul\":12152:12153   */\n      0x01\n        /* \"#utility.yul\":12145:12150   */\n      dup2\n        /* \"#utility.yul\":12141:12154   */\n      add\n        /* \"#utility.yul\":12132:12154   */\n      swap1\n      pop\n        /* \"#utility.yul\":12108:12228   */\n      jump(tag_264)\n    tag_266:\n        /* \"#utility.yul\":12048:12234   */\n      pop\n      pop\n      jump\t// out\n        /* \"#utility.yul\":12240:12783   */\n    tag_138:\n        /* \"#utility.yul\":12341:12343   */\n      0x1f\n        /* \"#utility.yul\":12336:12339   */\n      dup3\n        /* \"#utility.yul\":12333:12344   */\n      gt\n        /* \"#utility.yul\":12330:12776   */\n      iszero\n      tag_269\n      jumpi\n        /* \"#utility.yul\":12375:12413   */\n      tag_270\n        /* \"#utility.yul\":12407:12412   */\n      dup2\n        /* \"#utility.yul\":12375:12413   */\n      tag_127\n      jump\t// in\n    tag_270:\n        /* \"#utility.yul\":12459:12488   */\n      tag_271\n        /* \"#utility.yul\":12477:12487   */\n      dup5\n        /* \"#utility.yul\":12459:12488   */\n      tag_128\n      jump\t// in\n    tag_271:\n        /* \"#utility.yul\":12449:12457   */\n      dup2\n        /* \"#utility.yul\":12445:12489   */\n      add\n        /* \"#utility.yul\":12642:12644   */\n      0x20\n        /* \"#utility.yul\":12630:12640   */\n      dup6\n        /* \"#utility.yul\":12627:12645   */\n      lt\n        /* \"#utility.yul\":12624:12673   */\n      iszero\n      tag_272\n      jumpi\n        /* \"#utility.yul\":12663:12671   */\n      dup2\n        /* \"#utility.yul\":12648:12671   */\n      swap1\n      pop\n        /* \"#utility.yul\":12624:12673   */\n    tag_272:\n        /* \"#utility.yul\":12686:12766   */\n      tag_273\n        /* \"#utility.yul\":12742:12764   */\n      tag_274\n        /* \"#utility.yul\":12760:12763   */\n      dup6\n        /* \"#utility.yul\":12742:12764   */\n      tag_128\n      jump\t// in\n    tag_274:\n        /* \"#utility.yul\":12732:12740   */\n      dup4\n        /* \"#utility.yul\":12728:12765   */\n      add\n        /* \"#utility.yul\":12715:12726   */\n      dup3\n        /* \"#utility.yul\":12686:12766   */\n      tag_137\n      jump\t// in\n    tag_273:\n        /* \"#utility.yul\":12345:12776   */\n      pop\n      pop\n        /* \"#utility.yul\":12330:12776   */\n    tag_269:\n        /* \"#utility.yul\":12240:12783   */\n      pop\n      pop\n      pop\n      jump\t// out\n        /* \"#utility.yul\":12789:12906   */\n    tag_139:\n        /* \"#utility.yul\":12843:12851   */\n      0x00\n        /* \"#utility.yul\":12893:12898   */\n      dup3\n        /* \"#utility.yul\":12887:12891   */\n      dup3\n        /* \"#utility.yul\":12883:12899   */\n      shr\n        /* \"#utility.yul\":12862:12899   */\n      swap1\n      pop\n        /* \"#utility.yul\":12789:12906   */\n      swap3\n      swap2\n      pop\n      pop\n      jump\t// out\n        /* \"#utility.yul\":12912:13081   */\n    tag_140:\n        /* \"#utility.yul\":12956:12962   */\n      0x00\n        /* \"#utility.yul\":12989:13040   */\n      tag_277\n        /* \"#utility.yul\":13037:13038   */\n      0x00\n        /* \"#utility.yul\":13033:13039   */\n      not\n        /* \"#utility.yul\":13025:13030   */\n      dup5\n        /* \"#utility.yul\":13022:13023   */\n      0x08\n        /* \"#utility.yul\":13018:13031   */\n      mul\n        /* \"#utility.yul\":12989:13040   */\n      tag_139\n      jump\t// in\n    tag_277:\n        /* \"#utility.yul\":12985:13041   */\n      not\n        /* \"#utility.yul\":13070:13074   */\n      dup1\n        /* \"#utility.yul\":13064:13068   */\n      dup4\n        /* \"#utility.yul\":13060:13075   */\n      and\n        /* \"#utility.yul\":13050:13075   */\n      swap2\n      pop\n        /* \"#utility.yul\":12963:13081   */\n      pop\n        /* \"#utility.yul\":12912:13081   */\n      swap3\n      swap2\n      pop\n      pop\n      jump\t// out\n        /* \"#utility.yul\":13086:13381   */\n    tag_141:\n        /* \"#utility.yul\":13162:13166   */\n      0x00\n        /* \"#utility.yul\":13308:13337   */\n      tag_279\n        /* \"#utility.yul\":13333:13336   */\n      dup4\n        /* \"#utility.yul\":13327:13331   */\n      dup4\n        /* \"#utility.yul\":13308:13337   */\n      tag_140\n      jump\t// in\n    tag_279:\n        /* \"#utility.yul\":13300:13337   */\n      swap2\n      pop\n        /* \"#utility.yul\":13370:13373   */\n      dup3\n        /* \"#utility.yul\":13367:13368   */\n      0x02\n        /* \"#utility.yul\":13363:13374   */\n      mul\n        /* \"#utility.yul\":13357:13361   */\n      dup3\n        /* \"#utility.yul\":13354:13375   */\n      or\n        /* \"#utility.yul\":13346:13375   */\n      swap1\n      pop\n        /* \"#utility.yul\":13086:13381   */\n      swap3\n      swap2\n      pop\n      pop\n      jump\t// out\n        /* \"#utility.yul\":13386:14781   */\n    tag_30:\n        /* \"#utility.yul\":13503:13540   */\n      tag_281\n        /* \"#utility.yul\":13536:13539   */\n      dup3\n        /* \"#utility.yul\":13503:13540   */\n      tag_111\n      jump\t// in\n    tag_281:\n        /* \"#utility.yul\":13605:13623   */\n      0xffffffffffffffff\n        /* \"#utility.yul\":13597:13603   */\n      dup2\n        /* \"#utility.yul\":13594:13624   */\n      gt\n        /* \"#utility.yul\":13591:13647   */\n      iszero\n      tag_282\n      jumpi\n        /* \"#utility.yul\":13627:13645   */\n      tag_283\n      tag_51\n      jump\t// in\n    tag_283:\n        /* \"#utility.yul\":13591:13647   */\n    tag_282:\n        /* \"#utility.yul\":13671:13709   */\n      tag_284\n        /* \"#utility.yul\":13703:13707   */\n      dup3\n        /* \"#utility.yul\":13697:13708   */\n      sload\n        /* \"#utility.yul\":13671:13709   */\n      tag_71\n      jump\t// in\n    tag_284:\n        /* \"#utility.yul\":13756:13823   */\n      tag_285\n        /* \"#utility.yul\":13816:13822   */\n      dup3\n        /* \"#utility.yul\":13808:13814   */\n      dup3\n        /* \"#utility.yul\":13802:13806   */\n      dup6\n        /* \"#utility.yul\":13756:13823   */\n      tag_138\n      jump\t// in\n    tag_285:\n        /* \"#utility.yul\":13850:13851   */\n      0x00\n        /* \"#utility.yul\":13874:13878   */\n      0x20\n        /* \"#utility.yul\":13861:13878   */\n      swap1\n      pop\n        /* \"#utility.yul\":13906:13908   */\n      0x1f\n        /* \"#utility.yul\":13898:13904   */\n      dup4\n        /* \"#utility.yul\":13895:13909   */\n      gt\n        /* \"#utility.yul\":13923:13924   */\n      0x01\n        /* \"#utility.yul\":13918:14536   */\n      dup2\n      eq\n      tag_287\n      jumpi\n        /* \"#utility.yul\":14580:14581   */\n      0x00\n        /* \"#utility.yul\":14597:14603   */\n      dup5\n        /* \"#utility.yul\":14594:14671   */\n      iszero\n      tag_288\n      jumpi\n        /* \"#utility.yul\":14646:14655   */\n      dup3\n        /* \"#utility.yul\":14641:14644   */\n      dup8\n        /* \"#utility.yul\":14637:14656   */\n      add\n        /* \"#utility.yul\":14631:14657   */\n      mload\n        /* \"#utility.yul\":14622:14657   */\n      swap1\n      pop\n        /* \"#utility.yul\":14594:14671   */\n    tag_288:\n        /* \"#utility.yul\":14697:14764   */\n      tag_289\n        /* \"#utility.yul\":14757:14763   */\n      dup6\n        /* \"#utility.yul\":14750:14755   */\n      dup3\n        /* \"#utility.yul\":14697:14764   */\n      tag_141\n      jump\t// in\n    tag_289:\n        /* \"#utility.yul\":14691:14695   */\n      dup7\n        /* \"#utility.yul\":14684:14765   */\n      sstore\n        /* \"#utility.yul\":14553:14775   */\n      pop\n        /* \"#utility.yul\":13888:14775   */\n      jump(tag_286)\n        /* \"#utility.yul\":13918:14536   */\n    tag_287:\n        /* \"#utility.yul\":13970:13974   */\n      0x1f\n        /* \"#utility.yul\":13966:13975   */\n      not\n        /* \"#utility.yul\":13958:13964   */\n      dup5\n        /* \"#utility.yul\":13954:13976   */\n      and\n        /* \"#utility.yul\":14004:14041   */\n      tag_290\n        /* \"#utility.yul\":14036:14040   */\n      dup7\n        /* \"#utility.yul\":14004:14041   */\n      tag_127\n      jump\t// in\n    tag_290:\n        /* \"#utility.yul\":14063:14064   */\n      0x00\n        /* \"#utility.yul\":14077:14285   */\n    tag_291:\n        /* \"#utility.yul\":14091:14098   */\n      dup3\n        /* \"#utility.yul\":14088:14089   */\n      dup2\n        /* \"#utility.yul\":14085:14099   */\n      lt\n        /* \"#utility.yul\":14077:14285   */\n      iszero\n      tag_293\n      jumpi\n        /* \"#utility.yul\":14170:14179   */\n      dup5\n        /* \"#utility.yul\":14165:14168   */\n      dup10\n        /* \"#utility.yul\":14161:14180   */\n      add\n        /* \"#utility.yul\":14155:14181   */\n      mload\n        /* \"#utility.yul\":14147:14153   */\n      dup3\n        /* \"#utility.yul\":14140:14182   */\n      sstore\n        /* \"#utility.yul\":14221:14222   */\n      0x01\n        /* \"#utility.yul\":14213:14219   */\n      dup3\n        /* \"#utility.yul\":14209:14223   */\n      add\n        /* \"#utility.yul\":14199:14223   */\n      swap2\n      pop\n        /* \"#utility.yul\":14268:14270   */\n      0x20\n        /* \"#utility.yul\":14257:14266   */\n      dup6\n        /* \"#utility.yul\":14253:14271   */\n      add\n        /* \"#utility.yul\":14240:14271   */\n      swap5\n      pop\n        /* \"#utility.yul\":14114:14118   */\n      0x20\n        /* \"#utility.yul\":14111:14112   */\n      dup2\n        /* \"#utility.yul\":14107:14119   */\n      add\n        /* \"#utility.yul\":14102:14119   */\n      swap1\n      pop\n        /* \"#utility.yul\":14077:14285   */\n      jump(tag_291)\n    tag_293:\n        /* \"#utility.yul\":14313:14319   */\n      dup7\n        /* \"#utility.yul\":14304:14311   */\n      dup4\n        /* \"#utility.yul\":14301:14320   */\n      lt\n        /* \"#utility.yul\":14298:14477   */\n      iszero\n      tag_294\n      jumpi\n        /* \"#utility.yul\":14371:14380   */\n      dup5\n        /* \"#utility.yul\":14366:14369   */\n      dup10\n        /* \"#utility.yul\":14362:14381   */\n      add\n        /* \"#utility.yul\":14356:14382   */\n      mload\n        /* \"#utility.yul\":14414:14462   */\n      tag_295\n        /* \"#utility.yul\":14456:14460   */\n      0x1f\n        /* \"#utility.yul\":14448:14454   */\n      dup10\n        /* \"#utility.yul\":14444:14461   */\n      and\n        /* \"#utility.yul\":14433:14442   */\n      dup3\n        /* \"#utility.yul\":14414:14462   */\n      tag_140\n      jump\t// in\n    tag_295:\n        /* \"#utility.yul\":14406:14412   */\n      dup4\n        /* \"#utility.yul\":14399:14463   */\n      sstore\n        /* \"#utility.yul\":14321:14477   */\n      pop\n        /* \"#utility.yul\":14298:14477   */\n    tag_294:\n        /* \"#utility.yul\":14523:14524   */\n      0x01\n        /* \"#utility.yul\":14519:14520   */\n      0x02\n        /* \"#utility.yul\":14511:14517   */\n      dup9\n        /* \"#utility.yul\":14507:14521   */\n      mul\n        /* \"#utility.yul\":14503:14525   */\n      add\n        /* \"#utility.yul\":14497:14501   */\n      dup9\n        /* \"#utility.yul\":14490:14526   */\n      sstore\n        /* \"#utility.yul\":13925:14536   */\n      pop\n      pop\n      pop\n        /* \"#utility.yul\":13888:14775   */\n    tag_286:\n      pop\n        /* \"#utility.yul\":13478:14781   */\n      pop\n      pop\n      pop\n        /* \"#utility.yul\":13386:14781   */\n      pop\n      pop\n      jump\t// out\n        /* \"#utility.yul\":14787:14967   */\n    tag_42:\n        /* \"#utility.yul\":14835:14912   */\n      0x4e487b7100000000000000000000000000000000000000000000000000000000\n        /* \"#utility.yul\":14832:14833   */\n      0x00\n        /* \"#utility.yul\":14825:14913   */\n      mstore\n        /* \"#utility.yul\":14932:14936   */\n      0x32\n        /* \"#utility.yul\":14929:14930   */\n      0x04\n        /* \"#utility.yul\":14922:14937   */\n      mstore\n        /* \"#utility.yul\":14956:14960   */\n      0x24\n        /* \"#utility.yul\":14953:14954   */\n      0x00\n        /* \"#utility.yul\":14946:14961   */\n      revert\n        /* \"#utility.yul\":14973:15153   */\n    tag_142:\n        /* \"#utility.yul\":15021:15098   */\n      0x4e487b7100000000000000000000000000000000000000000000000000000000\n        /* \"#utility.yul\":15018:15019   */\n      0x00\n        /* \"#utility.yul\":15011:15099   */\n      mstore\n        /* \"#utility.yul\":15118:15122   */\n      0x11\n        /* \"#utility.yul\":15115:15116   */\n      0x04\n        /* \"#utility.yul\":15108:15123   */\n      mstore\n        /* \"#utility.yul\":15142:15146   */\n      0x24\n        /* \"#utility.yul\":15139:15140   */\n      0x00\n        /* \"#utility.yul\":15132:15147   */\n      revert\n        /* \"#utility.yul\":15159:15392   */\n    tag_48:\n        /* \"#utility.yul\":15198:15201   */\n      0x00\n        /* \"#utility.yul\":15221:15245   */\n      tag_299\n        /* \"#utility.yul\":15239:15244   */\n      dup3\n        /* \"#utility.yul\":15221:15245   */\n      tag_119\n      jump\t// in\n    tag_299:\n        /* \"#utility.yul\":15212:15245   */\n      swap2\n      pop\n        /* \"#utility.yul\":15267:15333   */\n      0xffffffffffffffffffffffffffffffffffffffffffffffffffffffffffffffff\n        /* \"#utility.yul\":15260:15265   */\n      dup3\n        /* \"#utility.yul\":15257:15334   */\n      sub\n        /* \"#utility.yul\":15254:15357   */\n      tag_300\n      jumpi\n        /* \"#utility.yul\":15337:15355   */\n      tag_301\n      tag_142\n      jump\t// in\n    tag_301:\n        /* \"#utility.yul\":15254:15357   */\n    tag_300:\n        /* \"#utility.yul\":15384:15385   */\n      0x01\n        /* \"#utility.yul\":15377:15382   */\n      dup3\n        /* \"#utility.yul\":15373:15386   */\n      add\n        /* \"#utility.yul\":15366:15386   */\n      swap1\n      pop\n        /* \"#utility.yul\":15159:15392   */\n      swap2\n      swap1\n      pop\n      jump\t// out\n\n    auxdata: 0xa264697066735822122068bbd3701b4bc791550a3fb60a3bc5ab1b1bf9b6cf9f95e9888f85346f25fb9364736f6c634300081e0033\n}\n",
				"bytecode": {
					"linkReferences": {},
					"object": "6080604052348015600e575f5ffd5b50610e428061001c5f395ff3fe608060405234801561000f575f5ffd5b506004361061004a575f3560e01c80631e8c58871461004e57806358575da41461006a5780635aa3e0c31461009a578063e650f536146100b6575b5f5ffd5b61006860048036038101906100639190610797565b6100d4565b005b610084600480360381019061007f919061081f565b6101d4565b6040516100919190610a57565b60405180910390f35b6100b460048036038101906100af919061081f565b61053a565b005b6100be6105a0565b6040516100cb9190610a86565b60405180910390f35b60015f3373ffffffffffffffffffffffffffffffffffffffff1673ffffffffffffffffffffffffffffffffffffffff1681526020019081526020015f20604051806080016040528085815260200184815260200183600281111561013b5761013a6108d3565b5b815260200142815250908060018154018082558091505060019003905f5260205f2090600402015f909190919091505f820151815f01908161017d9190610c9c565b5060208201518160010190816101939190610c9c565b506040820151816002015f6101000a81548160ff021916908360028111156101be576101bd6108d3565b5b0217905550606082015181600301555050505050565b60605f60015f3373ffffffffffffffffffffffffffffffffffffffff1673ffffffffffffffffffffffffffffffffffffffff1681526020019081526020015f2090505f5f90505f5f90505b82805490508110156102a05784600281111561023e5761023d6108d3565b5b83828154811061025157610250610d6b565b5b905f5260205f2090600402016002015f9054906101000a900460ff16600281111561027f5761027e6108d3565b5b0361029357818061028f90610dc5565b9250505b808060010191505061021f565b505f8167ffffffffffffffff8111156102bc576102bb610650565b5b6040519080825280602002602001820160405280156102f557816020015b6102e26105ef565b8152602001906001900390816102da5790505b5090505f5f90505f5f90505b848054905081101561052d578660028111156103205761031f6108d3565b5b85828154811061033357610332610d6b565b5b905f5260205f2090600402016002015f9054906101000a900460ff166002811115610361576103606108d3565b5b036105205784818154811061037957610378610d6b565b5b905f5260205f2090600402016040518060800160405290815f8201805461039f90610acc565b80601f01602080910402602001604051908101604052809291908181526020018280546103cb90610acc565b80156104165780601f106103ed57610100808354040283529160200191610416565b820191905f5260205f20905b8154815290600101906020018083116103f957829003601f168201915b5050505050815260200160018201805461042f90610acc565b80601f016020809104026020016040519081016040528092919081815260200182805461045b90610acc565b80156104a65780601f1061047d576101008083540402835291602001916104a6565b820191905f5260205f20905b81548152906001019060200180831161048957829003601f168201915b50505050508152602001600282015f9054906101000a900460ff1660028111156104d3576104d26108d3565b5b60028111156104e5576104e46108d3565b5b815260200160038201548152505083838151811061050657610505610d6b565b5b6020026020010181905250818061051c90610dc5565b9250505b8080600101915050610301565b5081945050505050919050565b805f5f3373ffffffffffffffffffffffffffffffffffffffff1673ffffffffffffffffffffffffffffffffffffffff1681526020019081526020015f205f6101000a81548160ff02191690836002811115610598576105976108d3565b5b021790555050565b5f5f5f3373ffffffffffffffffffffffffffffffffffffffff1673ffffffffffffffffffffffffffffffffffffffff1681526020019081526020015f205f9054906101000a900460ff16905090565b604051806080016040528060608152602001606081526020015f600281111561061b5761061a6108d3565b5b81526020015f81525090565b5f604051905090565b5f5ffd5b5f5ffd5b5f5ffd5b5f5ffd5b5f601f19601f8301169050919050565b7f4e487b71000000000000000000000000000000000000000000000000000000005f52604160045260245ffd5b61068682610640565b810181811067ffffffffffffffff821117156106a5576106a4610650565b5b80604052505050565b5f6106b7610627565b90506106c3828261067d565b919050565b5f67ffffffffffffffff8211156106e2576106e1610650565b5b6106eb82610640565b9050602081019050919050565b828183375f83830152505050565b5f610718610713846106c8565b6106ae565b9050828152602081018484840111156107345761073361063c565b5b61073f8482856106f8565b509392505050565b5f82601f83011261075b5761075a610638565b5b813561076b848260208601610706565b91505092915050565b60038110610780575f5ffd5b50565b5f8135905061079181610774565b92915050565b5f5f5f606084860312156107ae576107ad610630565b5b5f84013567ffffffffffffffff8111156107cb576107ca610634565b5b6107d786828701610747565b935050602084013567ffffffffffffffff8111156107f8576107f7610634565b5b61080486828701610747565b925050604061081586828701610783565b9150509250925092565b5f6020828403121561083457610833610630565b5b5f61084184828501610783565b91505092915050565b5f81519050919050565b5f82825260208201905092915050565b5f819050602082019050919050565b5f81519050919050565b5f82825260208201905092915050565b8281835e5f83830152505050565b5f6108a582610873565b6108af818561087d565b93506108bf81856020860161088d565b6108c881610640565b840191505092915050565b7f4e487b71000000000000000000000000000000000000000000000000000000005f52602160045260245ffd5b60038110610911576109106108d3565b5b50565b5f81905061092182610900565b919050565b5f61093082610914565b9050919050565b61094081610926565b82525050565b5f819050919050565b61095881610946565b82525050565b5f608083015f8301518482035f860152610978828261089b565b91505060208301518482036020860152610992828261089b565b91505060408301516109a76040860182610937565b5060608301516109ba606086018261094f565b508091505092915050565b5f6109d0838361095e565b905092915050565b5f602082019050919050565b5f6109ee8261084a565b6109f88185610854565b935083602082028501610a0a85610864565b805f5b85811015610a455784840389528151610a2685826109c5565b9450610a31836109d8565b925060208a01995050600181019050610a0d565b50829750879550505050505092915050565b5f6020820190508181035f830152610a6f81846109e4565b905092915050565b610a8081610926565b82525050565b5f602082019050610a995f830184610a77565b92915050565b7f4e487b71000000000000000000000000000000000000000000000000000000005f52602260045260245ffd5b5f6002820490506001821680610ae357607f821691505b602082108103610af657610af5610a9f565b5b50919050565b5f819050815f5260205f209050919050565b5f6020601f8301049050919050565b5f82821b905092915050565b5f60088302610b587fffffffffffffffffffffffffffffffffffffffffffffffffffffffffffffffff82610b1d565b610b628683610b1d565b95508019841693508086168417925050509392505050565b5f819050919050565b5f610b9d610b98610b9384610946565b610b7a565b610946565b9050919050565b5f819050919050565b610bb683610b83565b610bca610bc282610ba4565b848454610b29565b825550505050565b5f5f905090565b610be1610bd2565b610bec818484610bad565b505050565b5b81811015610c0f57610c045f82610bd9565b600181019050610bf2565b5050565b601f821115610c5457610c2581610afc565b610c2e84610b0e565b81016020851015610c3d578190505b610c51610c4985610b0e565b830182610bf1565b50505b505050565b5f82821c905092915050565b5f610c745f1984600802610c59565b1980831691505092915050565b5f610c8c8383610c65565b9150826002028217905092915050565b610ca582610873565b67ffffffffffffffff811115610cbe57610cbd610650565b5b610cc88254610acc565b610cd3828285610c13565b5f60209050601f831160018114610d04575f8415610cf2578287015190505b610cfc8582610c81565b865550610d63565b601f198416610d1286610afc565b5f5b82811015610d3957848901518255600182019150602085019450602081019050610d14565b86831015610d565784890151610d52601f891682610c65565b8355505b6001600288020188555050505b505050505050565b7f4e487b71000000000000000000000000000000000000000000000000000000005f52603260045260245ffd5b7f4e487b71000000000000000000000000000000000000000000000000000000005f52601160045260245ffd5b5f610dcf82610946565b91507fffffffffffffffffffffffffffffffffffffffffffffffffffffffffffffffff8203610e0157610e00610d98565b5b60018201905091905056fea264697066735822122068bbd3701b4bc791550a3fb60a3bc5ab1b1bf9b6cf9f95e9888f85346f25fb9364736f6c634300081e0033",
					"opcodes": "PUSH1 0x80 PUSH1 0x40 MSTORE CALLVALUE DUP1 ISZERO PUSH1 0xE JUMPI PUSH0 PUSH0 REVERT JUMPDEST POP PUSH2 0xE42 DUP1 PUSH2 0x1C PUSH0 CODECOPY PUSH0 RETURN INVALID PUSH1 0x80 PUSH1 0x40 MSTORE CALLVALUE DUP1 ISZERO PUSH2 0xF JUMPI PUSH0 PUSH0 REVERT JUMPDEST POP PUSH1 0x4 CALLDATASIZE LT PUSH2 0x4A JUMPI PUSH0 CALLDATALOAD PUSH1 0xE0 SHR DUP1 PUSH4 0x1E8C5887 EQ PUSH2 0x4E JUMPI DUP1 PUSH4 0x58575DA4 EQ PUSH2 0x6A JUMPI DUP1 PUSH4 0x5AA3E0C3 EQ PUSH2 0x9A JUMPI DUP1 PUSH4 0xE650F536 EQ PUSH2 0xB6 JUMPI JUMPDEST PUSH0 PUSH0 REVERT JUMPDEST PUSH2 0x68 PUSH1 0x4 DUP1 CALLDATASIZE SUB DUP2 ADD SWAP1 PUSH2 0x63 SWAP2 SWAP1 PUSH2 0x797 JUMP JUMPDEST PUSH2 0xD4 JUMP JUMPDEST STOP JUMPDEST PUSH2 0x84 PUSH1 0x4 DUP1 CALLDATASIZE SUB DUP2 ADD SWAP1 PUSH2 0x7F SWAP2 SWAP1 PUSH2 0x81F JUMP JUMPDEST PUSH2 0x1D4 JUMP JUMPDEST PUSH1 0x40 MLOAD PUSH2 0x91 SWAP2 SWAP1 PUSH2 0xA57 JUMP JUMPDEST PUSH1 0x40 MLOAD DUP1 SWAP2 SUB SWAP1 RETURN JUMPDEST PUSH2 0xB4 PUSH1 0x4 DUP1 CALLDATASIZE SUB DUP2 ADD SWAP1 PUSH2 0xAF SWAP2 SWAP1 PUSH2 0x81F JUMP JUMPDEST PUSH2 0x53A JUMP JUMPDEST STOP JUMPDEST PUSH2 0xBE PUSH2 0x5A0 JUMP JUMPDEST PUSH1 0x40 MLOAD PUSH2 0xCB SWAP2 SWAP1 PUSH2 0xA86 JUMP JUMPDEST PUSH1 0x40 MLOAD DUP1 SWAP2 SUB SWAP1 RETURN JUMPDEST PUSH1 0x1 PUSH0 CALLER PUSH20 0xFFFFFFFFFFFFFFFFFFFFFFFFFFFFFFFFFFFFFFFF AND PUSH20 0xFFFFFFFFFFFFFFFFFFFFFFFFFFFFFFFFFFFFFFFF AND DUP2 MSTORE PUSH1 0x20 ADD SWAP1 DUP2 MSTORE PUSH1 0x20 ADD PUSH0 KECCAK256 PUSH1 0x40 MLOAD DUP1 PUSH1 0x80 ADD PUSH1 0x40 MSTORE DUP1 DUP6 DUP2 MSTORE PUSH1 0x20 ADD DUP5 DUP2 MSTORE PUSH1 0x20 ADD DUP4 PUSH1 0x2 DUP2 GT ISZERO PUSH2 0x13B JUMPI PUSH2 0x13A PUSH2 0x8D3 JUMP JUMPDEST JUMPDEST DUP2 MSTORE PUSH1 0x20 ADD TIMESTAMP DUP2 MSTORE POP SWAP1 DUP1 PUSH1 0x1 DUP2 SLOAD ADD DUP1 DUP3 SSTORE DUP1 SWAP2 POP POP PUSH1 0x1 SWAP1 SUB SWAP1 PUSH0 MSTORE PUSH1 0x20 PUSH0 KECCAK256 SWAP1 PUSH1 0x4 MUL ADD PUSH0 SWAP1 SWAP2 SWAP1 SWAP2 SWAP1 SWAP2 POP PUSH0 DUP3 ADD MLOAD DUP2 PUSH0 ADD SWAP1 DUP2 PUSH2 0x17D SWAP2 SWAP1 PUSH2 0xC9C JUMP JUMPDEST POP PUSH1 0x20 DUP3 ADD MLOAD DUP2 PUSH1 0x1 ADD SWAP1 DUP2 PUSH2 0x193 SWAP2 SWAP1 PUSH2 0xC9C JUMP JUMPDEST POP PUSH1 0x40 DUP3 ADD MLOAD DUP2 PUSH1 0x2 ADD PUSH0 PUSH2 0x100 EXP DUP2 SLOAD DUP2 PUSH1 0xFF MUL NOT AND SWAP1 DUP4 PUSH1 0x2 DUP2 GT ISZERO PUSH2 0x1BE JUMPI PUSH2 0x1BD PUSH2 0x8D3 JUMP JUMPDEST JUMPDEST MUL OR SWAP1 SSTORE POP PUSH1 0x60 DUP3 ADD MLOAD DUP2 PUSH1 0x3 ADD SSTORE POP POP POP POP POP JUMP JUMPDEST PUSH1 0x60 PUSH0 PUSH1 0x1 PUSH0 CALLER PUSH20 0xFFFFFFFFFFFFFFFFFFFFFFFFFFFFFFFFFFFFFFFF AND PUSH20 0xFFFFFFFFFFFFFFFFFFFFFFFFFFFFFFFFFFFFFFFF AND DUP2 MSTORE PUSH1 0x20 ADD SWAP1 DUP2 MSTORE PUSH1 0x20 ADD PUSH0 KECCAK256 SWAP1 POP PUSH0 PUSH0 SWAP1 POP PUSH0 PUSH0 SWAP1 POP JUMPDEST DUP3 DUP1 SLOAD SWAP1 POP DUP2 LT ISZERO PUSH2 0x2A0 JUMPI DUP5 PUSH1 0x2 DUP2 GT ISZERO PUSH2 0x23E JUMPI PUSH2 0x23D PUSH2 0x8D3 JUMP JUMPDEST JUMPDEST DUP4 DUP3 DUP2 SLOAD DUP2 LT PUSH2 0x251 JUMPI PUSH2 0x250 PUSH2 0xD6B JUMP JUMPDEST JUMPDEST SWAP1 PUSH0 MSTORE PUSH1 0x20 PUSH0 KECCAK256 SWAP1 PUSH1 0x4 MUL ADD PUSH1 0x2 ADD PUSH0 SWAP1 SLOAD SWAP1 PUSH2 0x100 EXP SWAP1 DIV PUSH1 0xFF AND PUSH1 0x2 DUP2 GT ISZERO PUSH2 0x27F JUMPI PUSH2 0x27E PUSH2 0x8D3 JUMP JUMPDEST JUMPDEST SUB PUSH2 0x293 JUMPI DUP2 DUP1 PUSH2 0x28F SWAP1 PUSH2 0xDC5 JUMP JUMPDEST SWAP3 POP POP JUMPDEST DUP1 DUP1 PUSH1 0x1 ADD SWAP2 POP POP PUSH2 0x21F JUMP JUMPDEST POP PUSH0 DUP2 PUSH8 0xFFFFFFFFFFFFFFFF DUP2 GT ISZERO PUSH2 0x2BC JUMPI PUSH2 0x2BB PUSH2 0x650 JUMP JUMPDEST JUMPDEST PUSH1 0x40 MLOAD SWAP1 DUP1 DUP3 MSTORE DUP1 PUSH1 0x20 MUL PUSH1 0x20 ADD DUP3 ADD PUSH1 0x40 MSTORE DUP1 ISZERO PUSH2 0x2F5 JUMPI DUP2 PUSH1 0x20 ADD JUMPDEST PUSH2 0x2E2 PUSH2 0x5EF JUMP JUMPDEST DUP2 MSTORE PUSH1 0x20 ADD SWAP1 PUSH1 0x1 SWAP1 SUB SWAP1 DUP2 PUSH2 0x2DA JUMPI SWAP1 POP JUMPDEST POP SWAP1 POP PUSH0 PUSH0 SWAP1 POP PUSH0 PUSH0 SWAP1 POP JUMPDEST DUP5 DUP1 SLOAD SWAP1 POP DUP2 LT ISZERO PUSH2 0x52D JUMPI DUP7 PUSH1 0x2 DUP2 GT ISZERO PUSH2 0x320 JUMPI PUSH2 0x31F PUSH2 0x8D3 JUMP JUMPDEST JUMPDEST DUP6 DUP3 DUP2 SLOAD DUP2 LT PUSH2 0x333 JUMPI PUSH2 0x332 PUSH2 0xD6B JUMP JUMPDEST JUMPDEST SWAP1 PUSH0 MSTORE PUSH1 0x20 PUSH0 KECCAK256 SWAP1 PUSH1 0x4 MUL ADD PUSH1 0x2 ADD PUSH0 SWAP1 SLOAD SWAP1 PUSH2 0x100 EXP SWAP1 DIV PUSH1 0xFF AND PUSH1 0x2 DUP2 GT ISZERO PUSH2 0x361 JUMPI PUSH2 0x360 PUSH2 0x8D3 JUMP JUMPDEST JUMPDEST SUB PUSH2 0x520 JUMPI DUP5 DUP2 DUP2 SLOAD DUP2 LT PUSH2 0x379 JUMPI PUSH2 0x378 PUSH2 0xD6B JUMP JUMPDEST JUMPDEST SWAP1 PUSH0 MSTORE PUSH1 0x20 PUSH0 KECCAK256 SWAP1 PUSH1 0x4 MUL ADD PUSH1 0x40 MLOAD DUP1 PUSH1 0x80 ADD PUSH1 0x40 MSTORE SWAP1 DUP2 PUSH0 DUP3 ADD DUP1 SLOAD PUSH2 0x39F SWAP1 PUSH2 0xACC JUMP JUMPDEST DUP1 PUSH1 0x1F ADD PUSH1 0x20 DUP1 SWAP2 DIV MUL PUSH1 0x20 ADD PUSH1 0x40 MLOAD SWAP1 DUP2 ADD PUSH1 0x40 MSTORE DUP1 SWAP3 SWAP2 SWAP1 DUP2 DUP2 MSTORE PUSH1 0x20 ADD DUP3 DUP1 SLOAD PUSH2 0x3CB SWAP1 PUSH2 0xACC JUMP JUMPDEST DUP1 ISZERO PUSH2 0x416 JUMPI DUP1 PUSH1 0x1F LT PUSH2 0x3ED JUMPI PUSH2 0x100 DUP1 DUP4 SLOAD DIV MUL DUP4 MSTORE SWAP2 PUSH1 0x20 ADD SWAP2 PUSH2 0x416 JUMP JUMPDEST DUP3 ADD SWAP2 SWAP1 PUSH0 MSTORE PUSH1 0x20 PUSH0 KECCAK256 SWAP1 JUMPDEST DUP2 SLOAD DUP2 MSTORE SWAP1 PUSH1 0x1 ADD SWAP1 PUSH1 0x20 ADD DUP1 DUP4 GT PUSH2 0x3F9 JUMPI DUP3 SWAP1 SUB PUSH1 0x1F AND DUP3 ADD SWAP2 JUMPDEST POP POP POP POP POP DUP2 MSTORE PUSH1 0x20 ADD PUSH1 0x1 DUP3 ADD DUP1 SLOAD PUSH2 0x42F SWAP1 PUSH2 0xACC JUMP JUMPDEST DUP1 PUSH1 0x1F ADD PUSH1 0x20 DUP1 SWAP2 DIV MUL PUSH1 0x20 ADD PUSH1 0x40 MLOAD SWAP1 DUP2 ADD PUSH1 0x40 MSTORE DUP1 SWAP3 SWAP2 SWAP1 DUP2 DUP2 MSTORE PUSH1 0x20 ADD DUP3 DUP1 SLOAD PUSH2 0x45B SWAP1 PUSH2 0xACC JUMP JUMPDEST DUP1 ISZERO PUSH2 0x4A6 JUMPI DUP1 PUSH1 0x1F LT PUSH2 0x47D JUMPI PUSH2 0x100 DUP1 DUP4 SLOAD DIV MUL DUP4 MSTORE SWAP2 PUSH1 0x20 ADD SWAP2 PUSH2 0x4A6 JUMP JUMPDEST DUP3 ADD SWAP2 SWAP1 PUSH0 MSTORE PUSH1 0x20 PUSH0 KECCAK256 SWAP1 JUMPDEST DUP2 SLOAD DUP2 MSTORE SWAP1 PUSH1 0x1 ADD SWAP1 PUSH1 0x20 ADD DUP1 DUP4 GT PUSH2 0x489 JUMPI DUP3 SWAP1 SUB PUSH1 0x1F AND DUP3 ADD SWAP2 JUMPDEST POP POP POP POP POP DUP2 MSTORE PUSH1 0x20 ADD PUSH1 0x2 DUP3 ADD PUSH0 SWAP1 SLOAD SWAP1 PUSH2 0x100 EXP SWAP1 DIV PUSH1 0xFF AND PUSH1 0x2 DUP2 GT ISZERO PUSH2 0x4D3 JUMPI PUSH2 0x4D2 PUSH2 0x8D3 JUMP JUMPDEST JUMPDEST PUSH1 0x2 DUP2 GT ISZERO PUSH2 0x4E5 JUMPI PUSH2 0x4E4 PUSH2 0x8D3 JUMP JUMPDEST JUMPDEST DUP2 MSTORE PUSH1 0x20 ADD PUSH1 0x3 DUP3 ADD SLOAD DUP2 MSTORE POP POP DUP4 DUP4 DUP2 MLOAD DUP2 LT PUSH2 0x506 JUMPI PUSH2 0x505 PUSH2 0xD6B JUMP JUMPDEST JUMPDEST PUSH1 0x20 MUL PUSH1 0x20 ADD ADD DUP2 SWAP1 MSTORE POP DUP2 DUP1 PUSH2 0x51C SWAP1 PUSH2 0xDC5 JUMP JUMPDEST SWAP3 POP POP JUMPDEST DUP1 DUP1 PUSH1 0x1 ADD SWAP2 POP POP PUSH2 0x301 JUMP JUMPDEST POP DUP2 SWAP5 POP POP POP POP POP SWAP2 SWAP1 POP JUMP JUMPDEST DUP1 PUSH0 PUSH0 CALLER PUSH20 0xFFFFFFFFFFFFFFFFFFFFFFFFFFFFFFFFFFFFFFFF AND PUSH20 0xFFFFFFFFFFFFFFFFFFFFFFFFFFFFFFFFFFFFFFFF AND DUP2 MSTORE PUSH1 0x20 ADD SWAP1 DUP2 MSTORE PUSH1 0x20 ADD PUSH0 KECCAK256 PUSH0 PUSH2 0x100 EXP DUP2 SLOAD DUP2 PUSH1 0xFF MUL NOT AND SWAP1 DUP4 PUSH1 0x2 DUP2 GT ISZERO PUSH2 0x598 JUMPI PUSH2 0x597 PUSH2 0x8D3 JUMP JUMPDEST JUMPDEST MUL OR SWAP1 SSTORE POP POP JUMP JUMPDEST PUSH0 PUSH0 PUSH0 CALLER PUSH20 0xFFFFFFFFFFFFFFFFFFFFFFFFFFFFFFFFFFFFFFFF AND PUSH20 0xFFFFFFFFFFFFFFFFFFFFFFFFFFFFFFFFFFFFFFFF AND DUP2 MSTORE PUSH1 0x20 ADD SWAP1 DUP2 MSTORE PUSH1 0x20 ADD PUSH0 KECCAK256 PUSH0 SWAP1 SLOAD SWAP1 PUSH2 0x100 EXP SWAP1 DIV PUSH1 0xFF AND SWAP1 POP SWAP1 JUMP JUMPDEST PUSH1 0x40 MLOAD DUP1 PUSH1 0x80 ADD PUSH1 0x40 MSTORE DUP1 PUSH1 0x60 DUP2 MSTORE PUSH1 0x20 ADD PUSH1 0x60 DUP2 MSTORE PUSH1 0x20 ADD PUSH0 PUSH1 0x2 DUP2 GT ISZERO PUSH2 0x61B JUMPI PUSH2 0x61A PUSH2 0x8D3 JUMP JUMPDEST JUMPDEST DUP2 MSTORE PUSH1 0x20 ADD PUSH0 DUP2 MSTORE POP SWAP1 JUMP JUMPDEST PUSH0 PUSH1 0x40 MLOAD SWAP1 POP SWAP1 JUMP JUMPDEST PUSH0 PUSH0 REVERT JUMPDEST PUSH0 PUSH0 REVERT JUMPDEST PUSH0 PUSH0 REVERT JUMPDEST PUSH0 PUSH0 REVERT JUMPDEST PUSH0 PUSH1 0x1F NOT PUSH1 0x1F DUP4 ADD AND SWAP1 POP SWAP2 SWAP1 POP JUMP JUMPDEST PUSH32 0x4E487B7100000000000000000000000000000000000000000000000000000000 PUSH0 MSTORE PUSH1 0x41 PUSH1 0x4 MSTORE PUSH1 0x24 PUSH0 REVERT JUMPDEST PUSH2 0x686 DUP3 PUSH2 0x640 JUMP JUMPDEST DUP2 ADD DUP2 DUP2 LT PUSH8 0xFFFFFFFFFFFFFFFF DUP3 GT OR ISZERO PUSH2 0x6A5 JUMPI PUSH2 0x6A4 PUSH2 0x650 JUMP JUMPDEST JUMPDEST DUP1 PUSH1 0x40 MSTORE POP POP POP JUMP JUMPDEST PUSH0 PUSH2 0x6B7 PUSH2 0x627 JUMP JUMPDEST SWAP1 POP PUSH2 0x6C3 DUP3 DUP3 PUSH2 0x67D JUMP JUMPDEST SWAP2 SWAP1 POP JUMP JUMPDEST PUSH0 PUSH8 0xFFFFFFFFFFFFFFFF DUP3 GT ISZERO PUSH2 0x6E2 JUMPI PUSH2 0x6E1 PUSH2 0x650 JUMP JUMPDEST JUMPDEST PUSH2 0x6EB DUP3 PUSH2 0x640 JUMP JUMPDEST SWAP1 POP PUSH1 0x20 DUP2 ADD SWAP1 POP SWAP2 SWAP1 POP JUMP JUMPDEST DUP3 DUP2 DUP4 CALLDATACOPY PUSH0 DUP4 DUP4 ADD MSTORE POP POP POP JUMP JUMPDEST PUSH0 PUSH2 0x718 PUSH2 0x713 DUP5 PUSH2 0x6C8 JUMP JUMPDEST PUSH2 0x6AE JUMP JUMPDEST SWAP1 POP DUP3 DUP2 MSTORE PUSH1 0x20 DUP2 ADD DUP5 DUP5 DUP5 ADD GT ISZERO PUSH2 0x734 JUMPI PUSH2 0x733 PUSH2 0x63C JUMP JUMPDEST JUMPDEST PUSH2 0x73F DUP5 DUP3 DUP6 PUSH2 0x6F8 JUMP JUMPDEST POP SWAP4 SWAP3 POP POP POP JUMP JUMPDEST PUSH0 DUP3 PUSH1 0x1F DUP4 ADD SLT PUSH2 0x75B JUMPI PUSH2 0x75A PUSH2 0x638 JUMP JUMPDEST JUMPDEST DUP2 CALLDATALOAD PUSH2 0x76B DUP5 DUP3 PUSH1 0x20 DUP7 ADD PUSH2 0x706 JUMP JUMPDEST SWAP2 POP POP SWAP3 SWAP2 POP POP JUMP JUMPDEST PUSH1 0x3 DUP2 LT PUSH2 0x780 JUMPI PUSH0 PUSH0 REVERT JUMPDEST POP JUMP JUMPDEST PUSH0 DUP2 CALLDATALOAD SWAP1 POP PUSH2 0x791 DUP2 PUSH2 0x774 JUMP JUMPDEST SWAP3 SWAP2 POP POP JUMP JUMPDEST PUSH0 PUSH0 PUSH0 PUSH1 0x60 DUP5 DUP7 SUB SLT ISZERO PUSH2 0x7AE JUMPI PUSH2 0x7AD PUSH2 0x630 JUMP JUMPDEST JUMPDEST PUSH0 DUP5 ADD CALLDATALOAD PUSH8 0xFFFFFFFFFFFFFFFF DUP2 GT ISZERO PUSH2 0x7CB JUMPI PUSH2 0x7CA PUSH2 0x634 JUMP JUMPDEST JUMPDEST PUSH2 0x7D7 DUP7 DUP3 DUP8 ADD PUSH2 0x747 JUMP JUMPDEST SWAP4 POP POP PUSH1 0x20 DUP5 ADD CALLDATALOAD PUSH8 0xFFFFFFFFFFFFFFFF DUP2 GT ISZERO PUSH2 0x7F8 JUMPI PUSH2 0x7F7 PUSH2 0x634 JUMP JUMPDEST JUMPDEST PUSH2 0x804 DUP7 DUP3 DUP8 ADD PUSH2 0x747 JUMP JUMPDEST SWAP3 POP POP PUSH1 0x40 PUSH2 0x815 DUP7 DUP3 DUP8 ADD PUSH2 0x783 JUMP JUMPDEST SWAP2 POP POP SWAP3 POP SWAP3 POP SWAP3 JUMP JUMPDEST PUSH0 PUSH1 0x20 DUP3 DUP5 SUB SLT ISZERO PUSH2 0x834 JUMPI PUSH2 0x833 PUSH2 0x630 JUMP JUMPDEST JUMPDEST PUSH0 PUSH2 0x841 DUP5 DUP3 DUP6 ADD PUSH2 0x783 JUMP JUMPDEST SWAP2 POP POP SWAP3 SWAP2 POP POP JUMP JUMPDEST PUSH0 DUP2 MLOAD SWAP1 POP SWAP2 SWAP1 POP JUMP JUMPDEST PUSH0 DUP3 DUP3 MSTORE PUSH1 0x20 DUP3 ADD SWAP1 POP SWAP3 SWAP2 POP POP JUMP JUMPDEST PUSH0 DUP2 SWAP1 POP PUSH1 0x20 DUP3 ADD SWAP1 POP SWAP2 SWAP1 POP JUMP JUMPDEST PUSH0 DUP2 MLOAD SWAP1 POP SWAP2 SWAP1 POP JUMP JUMPDEST PUSH0 DUP3 DUP3 MSTORE PUSH1 0x20 DUP3 ADD SWAP1 POP SWAP3 SWAP2 POP POP JUMP JUMPDEST DUP3 DUP2 DUP4 MCOPY PUSH0 DUP4 DUP4 ADD MSTORE POP POP POP JUMP JUMPDEST PUSH0 PUSH2 0x8A5 DUP3 PUSH2 0x873 JUMP JUMPDEST PUSH2 0x8AF DUP2 DUP6 PUSH2 0x87D JUMP JUMPDEST SWAP4 POP PUSH2 0x8BF DUP2 DUP6 PUSH1 0x20 DUP7 ADD PUSH2 0x88D JUMP JUMPDEST PUSH2 0x8C8 DUP2 PUSH2 0x640 JUMP JUMPDEST DUP5 ADD SWAP2 POP POP SWAP3 SWAP2 POP POP JUMP JUMPDEST PUSH32 0x4E487B7100000000000000000000000000000000000000000000000000000000 PUSH0 MSTORE PUSH1 0x21 PUSH1 0x4 MSTORE PUSH1 0x24 PUSH0 REVERT JUMPDEST PUSH1 0x3 DUP2 LT PUSH2 0x911 JUMPI PUSH2 0x910 PUSH2 0x8D3 JUMP JUMPDEST JUMPDEST POP JUMP JUMPDEST PUSH0 DUP2 SWAP1 POP PUSH2 0x921 DUP3 PUSH2 0x900 JUMP JUMPDEST SWAP2 SWAP1 POP JUMP JUMPDEST PUSH0 PUSH2 0x930 DUP3 PUSH2 0x914 JUMP JUMPDEST SWAP1 POP SWAP2 SWAP1 POP JUMP JUMPDEST PUSH2 0x940 DUP2 PUSH2 0x926 JUMP JUMPDEST DUP3 MSTORE POP POP JUMP JUMPDEST PUSH0 DUP2 SWAP1 POP SWAP2 SWAP1 POP JUMP JUMPDEST PUSH2 0x958 DUP2 PUSH2 0x946 JUMP JUMPDEST DUP3 MSTORE POP POP JUMP JUMPDEST PUSH0 PUSH1 0x80 DUP4 ADD PUSH0 DUP4 ADD MLOAD DUP5 DUP3 SUB PUSH0 DUP7 ADD MSTORE PUSH2 0x978 DUP3 DUP3 PUSH2 0x89B JUMP JUMPDEST SWAP2 POP POP PUSH1 0x20 DUP4 ADD MLOAD DUP5 DUP3 SUB PUSH1 0x20 DUP7 ADD MSTORE PUSH2 0x992 DUP3 DUP3 PUSH2 0x89B JUMP JUMPDEST SWAP2 POP POP PUSH1 0x40 DUP4 ADD MLOAD PUSH2 0x9A7 PUSH1 0x40 DUP7 ADD DUP3 PUSH2 0x937 JUMP JUMPDEST POP PUSH1 0x60 DUP4 ADD MLOAD PUSH2 0x9BA PUSH1 0x60 DUP7 ADD DUP3 PUSH2 0x94F JUMP JUMPDEST POP DUP1 SWAP2 POP POP SWAP3 SWAP2 POP POP JUMP JUMPDEST PUSH0 PUSH2 0x9D0 DUP4 DUP4 PUSH2 0x95E JUMP JUMPDEST SWAP1 POP SWAP3 SWAP2 POP POP JUMP JUMPDEST PUSH0 PUSH1 0x20 DUP3 ADD SWAP1 POP SWAP2 SWAP1 POP JUMP JUMPDEST PUSH0 PUSH2 0x9EE DUP3 PUSH2 0x84A JUMP JUMPDEST PUSH2 0x9F8 DUP2 DUP6 PUSH2 0x854 JUMP JUMPDEST SWAP4 POP DUP4 PUSH1 0x20 DUP3 MUL DUP6 ADD PUSH2 0xA0A DUP6 PUSH2 0x864 JUMP JUMPDEST DUP1 PUSH0 JUMPDEST DUP6 DUP2 LT ISZERO PUSH2 0xA45 JUMPI DUP5 DUP5 SUB DUP10 MSTORE DUP2 MLOAD PUSH2 0xA26 DUP6 DUP3 PUSH2 0x9C5 JUMP JUMPDEST SWAP5 POP PUSH2 0xA31 DUP4 PUSH2 0x9D8 JUMP JUMPDEST SWAP3 POP PUSH1 0x20 DUP11 ADD SWAP10 POP POP PUSH1 0x1 DUP2 ADD SWAP1 POP PUSH2 0xA0D JUMP JUMPDEST POP DUP3 SWAP8 POP DUP8 SWAP6 POP POP POP POP POP POP SWAP3 SWAP2 POP POP JUMP JUMPDEST PUSH0 PUSH1 0x20 DUP3 ADD SWAP1 POP DUP2 DUP2 SUB PUSH0 DUP4 ADD MSTORE PUSH2 0xA6F DUP2 DUP5 PUSH2 0x9E4 JUMP JUMPDEST SWAP1 POP SWAP3 SWAP2 POP POP JUMP JUMPDEST PUSH2 0xA80 DUP2 PUSH2 0x926 JUMP JUMPDEST DUP3 MSTORE POP POP JUMP JUMPDEST PUSH0 PUSH1 0x20 DUP3 ADD SWAP1 POP PUSH2 0xA99 PUSH0 DUP4 ADD DUP5 PUSH2 0xA77 JUMP JUMPDEST SWAP3 SWAP2 POP POP JUMP JUMPDEST PUSH32 0x4E487B7100000000000000000000000000000000000000000000000000000000 PUSH0 MSTORE PUSH1 0x22 PUSH1 0x4 MSTORE PUSH1 0x24 PUSH0 REVERT JUMPDEST PUSH0 PUSH1 0x2 DUP3 DIV SWAP1 POP PUSH1 0x1 DUP3 AND DUP1 PUSH2 0xAE3 JUMPI PUSH1 0x7F DUP3 AND SWAP2 POP JUMPDEST PUSH1 0x20 DUP3 LT DUP2 SUB PUSH2 0xAF6 JUMPI PUSH2 0xAF5 PUSH2 0xA9F JUMP JUMPDEST JUMPDEST POP SWAP2 SWAP1 POP JUMP JUMPDEST PUSH0 DUP2 SWAP1 POP DUP2 PUSH0 MSTORE PUSH1 0x20 PUSH0 KECCAK256 SWAP1 POP SWAP2 SWAP1 POP JUMP JUMPDEST PUSH0 PUSH1 0x20 PUSH1 0x1F DUP4 ADD DIV SWAP1 POP SWAP2 SWAP1 POP JUMP JUMPDEST PUSH0 DUP3 DUP3 SHL SWAP1 POP SWAP3 SWAP2 POP POP JUMP JUMPDEST PUSH0 PUSH1 0x8 DUP4 MUL PUSH2 0xB58 PUSH32 0xFFFFFFFFFFFFFFFFFFFFFFFFFFFFFFFFFFFFFFFFFFFFFFFFFFFFFFFFFFFFFFFF DUP3 PUSH2 0xB1D JUMP JUMPDEST PUSH2 0xB62 DUP7 DUP4 PUSH2 0xB1D JUMP JUMPDEST SWAP6 POP DUP1 NOT DUP5 AND SWAP4 POP DUP1 DUP7 AND DUP5 OR SWAP3 POP POP POP SWAP4 SWAP3 POP POP POP JUMP JUMPDEST PUSH0 DUP2 SWAP1 POP SWAP2 SWAP1 POP JUMP JUMPDEST PUSH0 PUSH2 0xB9D PUSH2 0xB98 PUSH2 0xB93 DUP5 PUSH2 0x946 JUMP JUMPDEST PUSH2 0xB7A JUMP JUMPDEST PUSH2 0x946 JUMP JUMPDEST SWAP1 POP SWAP2 SWAP1 POP JUMP JUMPDEST PUSH0 DUP2 SWAP1 POP SWAP2 SWAP1 POP JUMP JUMPDEST PUSH2 0xBB6 DUP4 PUSH2 0xB83 JUMP JUMPDEST PUSH2 0xBCA PUSH2 0xBC2 DUP3 PUSH2 0xBA4 JUMP JUMPDEST DUP5 DUP5 SLOAD PUSH2 0xB29 JUMP JUMPDEST DUP3 SSTORE POP POP POP POP JUMP JUMPDEST PUSH0 PUSH0 SWAP1 POP SWAP1 JUMP JUMPDEST PUSH2 0xBE1 PUSH2 0xBD2 JUMP JUMPDEST PUSH2 0xBEC DUP2 DUP5 DUP5 PUSH2 0xBAD JUMP JUMPDEST POP POP POP JUMP JUMPDEST JUMPDEST DUP2 DUP2 LT ISZERO PUSH2 0xC0F JUMPI PUSH2 0xC04 PUSH0 DUP3 PUSH2 0xBD9 JUMP JUMPDEST PUSH1 0x1 DUP2 ADD SWAP1 POP PUSH2 0xBF2 JUMP JUMPDEST POP POP JUMP JUMPDEST PUSH1 0x1F DUP3 GT ISZERO PUSH2 0xC54 JUMPI PUSH2 0xC25 DUP2 PUSH2 0xAFC JUMP JUMPDEST PUSH2 0xC2E DUP5 PUSH2 0xB0E JUMP JUMPDEST DUP2 ADD PUSH1 0x20 DUP6 LT ISZERO PUSH2 0xC3D JUMPI DUP2 SWAP1 POP JUMPDEST PUSH2 0xC51 PUSH2 0xC49 DUP6 PUSH2 0xB0E JUMP JUMPDEST DUP4 ADD DUP3 PUSH2 0xBF1 JUMP JUMPDEST POP POP JUMPDEST POP POP POP JUMP JUMPDEST PUSH0 DUP3 DUP3 SHR SWAP1 POP SWAP3 SWAP2 POP POP JUMP JUMPDEST PUSH0 PUSH2 0xC74 PUSH0 NOT DUP5 PUSH1 0x8 MUL PUSH2 0xC59 JUMP JUMPDEST NOT DUP1 DUP4 AND SWAP2 POP POP SWAP3 SWAP2 POP POP JUMP JUMPDEST PUSH0 PUSH2 0xC8C DUP4 DUP4 PUSH2 0xC65 JUMP JUMPDEST SWAP2 POP DUP3 PUSH1 0x2 MUL DUP3 OR SWAP1 POP SWAP3 SWAP2 POP POP JUMP JUMPDEST PUSH2 0xCA5 DUP3 PUSH2 0x873 JUMP JUMPDEST PUSH8 0xFFFFFFFFFFFFFFFF DUP2 GT ISZERO PUSH2 0xCBE JUMPI PUSH2 0xCBD PUSH2 0x650 JUMP JUMPDEST JUMPDEST PUSH2 0xCC8 DUP3 SLOAD PUSH2 0xACC JUMP JUMPDEST PUSH2 0xCD3 DUP3 DUP3 DUP6 PUSH2 0xC13 JUMP JUMPDEST PUSH0 PUSH1 0x20 SWAP1 POP PUSH1 0x1F DUP4 GT PUSH1 0x1 DUP2 EQ PUSH2 0xD04 JUMPI PUSH0 DUP5 ISZERO PUSH2 0xCF2 JUMPI DUP3 DUP8 ADD MLOAD SWAP1 POP JUMPDEST PUSH2 0xCFC DUP6 DUP3 PUSH2 0xC81 JUMP JUMPDEST DUP7 SSTORE POP PUSH2 0xD63 JUMP JUMPDEST PUSH1 0x1F NOT DUP5 AND PUSH2 0xD12 DUP7 PUSH2 0xAFC JUMP JUMPDEST PUSH0 JUMPDEST DUP3 DUP2 LT ISZERO PUSH2 0xD39 JUMPI DUP5 DUP10 ADD MLOAD DUP3 SSTORE PUSH1 0x1 DUP3 ADD SWAP2 POP PUSH1 0x20 DUP6 ADD SWAP5 POP PUSH1 0x20 DUP2 ADD SWAP1 POP PUSH2 0xD14 JUMP JUMPDEST DUP7 DUP4 LT ISZERO PUSH2 0xD56 JUMPI DUP5 DUP10 ADD MLOAD PUSH2 0xD52 PUSH1 0x1F DUP10 AND DUP3 PUSH2 0xC65 JUMP JUMPDEST DUP4 SSTORE POP JUMPDEST PUSH1 0x1 PUSH1 0x2 DUP9 MUL ADD DUP9 SSTORE POP POP POP JUMPDEST POP POP POP POP POP POP JUMP JUMPDEST PUSH32 0x4E487B7100000000000000000000000000000000000000000000000000000000 PUSH0 MSTORE PUSH1 0x32 PUSH1 0x4 MSTORE PUSH1 0x24 PUSH0 REVERT JUMPDEST PUSH32 0x4E487B7100000000000000000000000000000000000000000000000000000000 PUSH0 MSTORE PUSH1 0x11 PUSH1 0x4 MSTORE PUSH1 0x24 PUSH0 REVERT JUMPDEST PUSH0 PUSH2 0xDCF DUP3 PUSH2 0x946 JUMP JUMPDEST SWAP2 POP PUSH32 0xFFFFFFFFFFFFFFFFFFFFFFFFFFFFFFFFFFFFFFFFFFFFFFFFFFFFFFFFFFFFFFFF DUP3 SUB PUSH2 0xE01 JUMPI PUSH2 0xE00 PUSH2 0xD98 JUMP JUMPDEST JUMPDEST PUSH1 0x1 DUP3 ADD SWAP1 POP SWAP2 SWAP1 POP JUMP INVALID LOG2 PUSH5 0x6970667358 0x22 SLT KECCAK256 PUSH9 0xBBD3701B4BC791550A EXTCODEHASH 0xB6 EXP EXTCODESIZE 0xC5 0xAB SHL SHL EXTDELEGATECALL 0xB6 0xCF SWAP16 SWAP6 0xE9 DUP9 DUP16 DUP6 CALLVALUE PUSH16 0x25FB9364736F6C634300081E00330000 "
				},
				"gasEstimates": {
					"creation": {
						"codeDepositCost": "730000",
						"executionCost": "764",
						"totalCost": "730764"
					},
					"external": {
						"addDiary(string,string,uint8)": "infinite",
						"getDiariesByStatus(uint8)": "infinite",
						"getUserStatus()": "2691",
						"setUserStatus(uint8)": "24753"
					}
				},
				"methodIdentifiers": {
					"addDiary(string,string,uint8)": "1e8c5887",
					"getDiariesByStatus(uint8)": "58575da4",
					"getUserStatus()": "e650f536",
					"setUserStatus(uint8)": "5aa3e0c3"
				}
			},
			"storageLayout": {
				"storage": [
					{
						"astId": 20,
						"contract": "Diary/Diary.sol:Diary",
						"label": "userStatus",
						"offset": 0,
						"slot": "0",
						"type": "t_mapping(t_address,t_enum(Status)5)"
					},
					{
						"astId": 26,
						"contract": "Diary/Diary.sol:Diary",
						"label": "DiaryInfos",
						"offset": 0,
						"slot": "1",
						"type": "t_mapping(t_address,t_array(t_struct(DiaryInfo)15_storage)dyn_storage)"
					}
				],
				"types": {
					"t_address": {
						"encoding": "inplace",
						"label": "address",
						"numberOfBytes": "20"
					},
					"t_array(t_struct(DiaryInfo)15_storage)dyn_storage": {
						"base": "t_struct(DiaryInfo)15_storage",
						"encoding": "dynamic_array",
						"label": "struct Diary.DiaryInfo[]",
						"numberOfBytes": "32"
					},
					"t_enum(Status)5": {
						"encoding": "inplace",
						"label": "enum Diary.Status",
						"numberOfBytes": "1"
					},
					"t_mapping(t_address,t_array(t_struct(DiaryInfo)15_storage)dyn_storage)": {
						"encoding": "mapping",
						"key": "t_address",
						"label": "mapping(address => struct Diary.DiaryInfo[])",
						"numberOfBytes": "32",
						"value": "t_array(t_struct(DiaryInfo)15_storage)dyn_storage"
					},
					"t_mapping(t_address,t_enum(Status)5)": {
						"encoding": "mapping",
						"key": "t_address",
						"label": "mapping(address => enum Diary.Status)",
						"numberOfBytes": "32",
						"value": "t_enum(Status)5"
					},
					"t_string_storage": {
						"encoding": "bytes",
						"label": "string",
						"numberOfBytes": "32"
					},
					"t_struct(DiaryInfo)15_storage": {
						"encoding": "inplace",
						"label": "struct Diary.DiaryInfo",
						"members": [
							{
								"astId": 7,
								"contract": "Diary/Diary.sol:Diary",
								"label": "title",
								"offset": 0,
								"slot": "0",
								"type": "t_string_storage"
							},
							{
								"astId": 9,
								"contract": "Diary/Diary.sol:Diary",
								"label": "content",
								"offset": 0,
								"slot": "1",
								"type": "t_string_storage"
							},
							{
								"astId": 12,
								"contract": "Diary/Diary.sol:Diary",
								"label": "status",
								"offset": 0,
								"slot": "2",
								"type": "t_enum(Status)5"
							},
							{
								"astId": 14,
								"contract": "Diary/Diary.sol:Diary",
								"label": "timestamp",
								"offset": 0,
								"slot": "3",
								"type": "t_uint256"
							}
						],
						"numberOfBytes": "128"
					},
					"t_uint256": {
						"encoding": "inplace",
						"label": "uint256",
						"numberOfBytes": "32"
					}
				}
			},
			"userdoc": {
				"kind": "user",
				"methods": {},
				"version": 1
			}
		}
	}
}